:020000040000FA
:0600000028EF0BF01200D6
:020006000000F8
:0600080076EF06F0120085
:02000E00C2909E
:040010009D9C1200A1
:04001400C282120092
:06001800D9EF06F0120012
:02001E00D9CF38
:10002000E6FFE1CFD9FF82E941E9E7CFD9FF12002E
:10003000D9CFE6FFE1CFD9FF84E941E9E7CFD9FF86
:100040001200D9CFE6FFE1CFD9FF82E941E9E7CF3E
:10005000D9FF1200D9CFE6FFE1CFD9FF84E953C021
:10006000E9FF54C0EAFF1D0EE926000EEA22EF6AFE
:1000700053C0E9FF54C0EAFF1D0EEB50D880025474
:1000800032E253C0E9FF54C0EAFF1D0EEB500024DA
:10009000E96E000E0120EA6EEF50E66E53C0E9FFF4
:1000A00054C0EAFF110EE926000EEA22E9CF4DF016
:1000B000EACF4EF053C0E9FF54C0EAFF1D0EEB50EB
:1000C0000001EA6A4D25E96E4E51EA22E552E750F9
:1000D000EF6E53C0E9FF54C0EAFF1D0EE926000E83
:1000E000EA22EF2AC5D753C0E9FF54C0EAFF1D0E2C
:1000F000E926000EEA2202EBEFFF53C0E9FF54C0ED
:10010000EAFF1E0EE926000EEA22010EEF6E53C032
:10011000E9FF54C0EAFF110EEB50C96EC68841E9F1
:10012000E7CFD9FF1200D9CFE6FFE1CFD9FF82E9AF
:1001300053C0E9FF54C0EAFF0D0EE926000EEA2283
:10014000010EEF6E53C0E9FF54C0EAFF0C0EE92622
:10015000000EEA22EF6A005035E0C7AA1DD053C056
:10016000E9FF54C0EAFF0E0EE926000EEA22050E52
:10017000EF6E53C0E9FF54C0EAFF100EE926000EEF
:10018000EA22EF2A53C0E9FF54C0EAFF0F0EE92626
:10019000000EEA22050E1FD0C7A40AD053C0E9FF03
:1001A00054C0EAFF0E0EE926000EEA22080E13D014
:1001B00053C0E9FF54C0EAFF0E0EE926000EEA2202
:1001C000070E09D053C0E9FF54C0EAFF0E0EE9261E
:1001D000000EEA22060EEF6E41E9E7CFD9FF1200CA
:1001E000D9CFE6FFE1CFD9FF81E95CE8026A036A73
:1001F000046A056A066AC6AC20D0C69C53C0E9FFF3
:1002000054C0EAFF0E0EE926000EEA22050EEF6E3C
:10021000010E066E53C0E9FF54C0EAFF100EE92636
:10022000000EEA22EF2A53C0E9FF54C0EAFF0F0E86
:10023000E926000EEA22040EEF6EC7A004D0C950D2
:10024000016E010E026E065001E05FD153C0E9FF5E
:1002500054C0EAFF0E0EEB50070A01E1B4D00F0ABA
:1002600001E17FD00E0A16E0030A01E04ED1C7A6D5
:100270004CD102EBE6FF57DF41E953C0E9FF54C020
:10028000EAFF0E0EEB50080801E03FD1026A010EB2
:10029000056E3BD1C7A822D053C0E9FF54C0EAFF86
:1002A0000D0EE926000EEA22EF2A025001E123D1C9
:1002B000C7AAD1D053C0E9FF54C0EAFF100EE92607
:1002C000000EEA22EF2A53C0E9FF54C0EAFF0F0EE6
:1002D000E926000EEA22060EEF6E0DD1025001E172
:1002E00014D153C0E9FF54C0EAFF0D0EE926000EF9
:1002F000EA22EF2AC7BA18D0C7B40AD053C0E9FF20
:1003000054C0EAFF0E0EE926000EEA22070EFCD0CA
:1003100053C0E9FF54C0EAFF0E0EE926000EEA22A0
:10032000080EEF6E010ED1D053C0E9FF54C0EAFFB2
:10033000100EE926000EEA22EF2A53C0E9FF54C04E
:10034000EAFF0E0EE926000EEA22050EEF6E53C0FC
:10035000E9FF54C0EAFF0F0EE926000EEA22060E5E
:10036000D3D053C0E9FF54C0EAFF1E0EEB5000018A
:100370004D6F1D0EEB504D5D01E3BDD053C0E9FF45
:1003800054C0EAFF110EE926000EEA22E9CF4DF033
:10039000EACF4EF053C0E9FF54C0EAFF1E0EEB5007
:1003A000EA6A4D25E96E4E51EA22EF50C96E53C0FC
:1003B000E9FF54C0EAFF1E0EE926000EEA22EF2AEA
:1003C000010E036EA2D0C7A849D053C0E9FF54C0A4
:1003D000EAFF0D0EE926000EEA22EF2A02503BE06A
:1003E000C7AA1CD053C0E9FF54C0EAFF53C04DF068
:1003F00054C04EF00C0EEB500001EA6A4D25E96E38
:100400004E51EA2201EBEFFF53C0E9FF54C0EAFF6F
:100410000C0EE926000EEA22EF2A1DD053C0E9FF98
:1004200054C0EAFF100EE926000EEA22EF2A53C05C
:10043000E9FF54C0EAFF0F0EE926000EEA22060E7D
:10044000EF6E53C0E9FF54C0EAFF0E0EE926000E1E
:10045000EA22050E4FD0010E046E4DD0025055E039
:1004600053C0E9FF54C0EAFF0D0EE926000EEA2250
:10047000EF2AC7AA1CD053C0E9FF54C0EAFF53C0FB
:100480004DF054C04EF00C0EEB500001EA6A4D25C1
:10049000E96E4E51EA2201EBEFFF53C0E9FF54C071
:1004A000EAFF0C0EE926000EEA22EF2A2ED0C7A49E
:1004B0000FD053C0E9FF54C0EAFF0E0EE926000E2C
:1004C000EA22080EEF6E010E046E056E026A1DD060
:1004D00053C0E9FF54C0EAFF100EE926000EEA22DD
:1004E000EF2A53C0E9FF54C0EAFF0F0EE926000EC1
:1004F000EA22060EEF6E53C0E9FF54C0EAFF0E0E6B
:10050000E926000EEA22050EEF6E025002E10350CA
:1005100002E0C6A8C68853C0E9FF54C0EAFF0C0E2B
:10052000EB500A081FE204501DE153C0E9FF54C01C
:10053000EAFF0E0EE926000EEA22050EEF6E53C00A
:10054000E9FF54C0EAFF100EE926000EEA22EF2A66
:1005500053C0E9FF54C0EAFF0F0EE926000EEA225D
:10056000070EEF6E045032E08A2A53C0E9FF54C0F0
:10057000EAFF0D0EEB50E66E53C04DF054C04EF046
:100580000C0EEB500001EA6A4D25E96E4E51EA224D
:10059000E552E750EF6E53C0E9FF54C0EAFF53C085
:1005A0004DF054C04EF053C0E6FF54C0E6FF280E95
:1005B000E66E0C0EEB50010FE66E05EC05F044E91B
:1005C00053C0E9FF54C0EAFF0C0E29D053C0E9FF25
:1005D00054C0EAFF100EEB5000014D6F010E4D5D4F
:1005E00022E353C0E9FF54C0EAFF100EEB50076E40
:1005F0000F0EEB50086E0D0EEB50096ED950070F21
:10060000E66EDACFE6FF290EE66E030EE66E05EC27
:1006100005F044E953C0E9FF54C0EAFF100EE92693
:10062000000EEA22EF6A05504EE0176A186A53C0BE
:10063000E9FF54C0EAFFEF50AA0844E104EC06F0D9
:10064000F3CF4DF0F4CF4EF00001F350F41015E06D
:10065000D9500A0FE66EDACFE6FFD950160FE66ED4
:10066000DACFE6FF0C0EE66E7CEC05F045E91B6E7A
:100670001C6AE8AE1ED01C681CD0176A186A0C0EE3
:10068000D89018BE03D0175C000E185812E2D9504B
:100690000A0FE66EDACFE6FFFE0EE3501724E96E8E
:1006A00041E9E5501820EA6EEF68172A000E18227B
:1006B000E6D7D9500A0FE66EDACFE6FF0C0EE66EEB
:1006C000C9DC43E9056A5DE9E7CFD9FF1200D9CF5C
:1006D000E6FFE1CFD9FF83E900EB53F001EB54F0E3
:1006E00053C0E9FF54C0EAFF0C0EE926000EEA22CF
:1006F000EF6A53C0E9FF54C0EAFF0D0EE926000E71
:10070000EA22EF6A53C0E9FF54C0EAFF0E0EE92661
:10071000000EEA22050EEF6E53C0E9FF54C0EAFF57
:10072000100EE926000EEA22EF6A41E9E7CFD9FF71
:100730001200D9CFE6FFE1CFD9FF82E994869488F1
:10074000946800EBC8FFC76AC66AC56A0E0EC61277
:0E075000C78EC580C68A41E9E7CFD9FF1200E7
:02075E00D9CFF1
:10076000E6FFE1CFD9FF83E941E800EBE9FF01EBC8
:10077000EAFF3C0EE926000EEA22EF6A00EBE9FFF1
:1007800001EBEAFF3D0EE926000EEA22EF6A036A5A
:10079000040E035C0FE200EBE9FF01EBEAFF0350FC
:1007A0000F0DE950F324E96EEA50F420EA6EEF6A87
:1007B000032AEED742E9E7CFD9FF1200D9CFE6FFEF
:1007C000E1CFD9FF87E945E803500A6E0B6A04EBD5
:1007D000E9FF05EBEAFF3C0EE926000EEA22EF50A6
:1007E000076E04EBE9FF05EBEAFF07500F0D000170
:1007F000F350E924086EF450EA20096E08EBE9FF93
:1008000009EBEAFFEF5002E0FF0E48D008EBE9FFEA
:1008100009EBEAFFEE5203EBEFFF08EBE9FF09EB10
:10082000EAFF020EE926000EEA2202EBEFFF0AEBD6
:10083000E6FF0BEBE6FF00EBE6FF01EBE6FF08EB64
:10084000E9FF09EBEAFF030EE926000EEA22E9CFF1
:100850004DF0EACF4EF0E9CFE6FFEACFE6FF0EEC2F
:100860000AF046E904EBE9FF05EBEAFF3C0EE92656
:10087000000EEA22EF28030BE66E04EBE9FF05EB1E
:10088000EAFF3C0EE926000EEA22E552E750EF6E41
:1008900008EBE9FF09EBEAFF010EEF6E46E9E7CF4F
:1008A000D9FF1200D9CFE6FFE1CFD9FF88E945E8AB
:1008B00005EBE9FF06EBEAFF3D0EE926000EEA2212
:1008C000EF50086E05EBE9FF06EBEAFF08500F0D4D
:1008D0000001F350E924096EF450EA200A6E09EB96
:1008E000E9FF0AEBEAFFEF045BE109EBE9FF0AEB42
:1008F000EAFFEE52EF50045C02E2FD0E52D009EB2B
:10090000E9FF0AEBEAFFEE52EF500B6E0C6A0BEBBD
:10091000E6FF0CEBE6FF09EBE9FF0AEBEAFF030E4B
:10092000E926000EEA22E9CF4DF0EACF4EF0E9CFFA
:10093000E6FFEACFE6FF00EBE6FF01EBE6FF0EEC99
:100940000AF046E905EBE9FF06EBEAFF3D0EE92672
:10095000000EEA22EF28030BE66E05EBE9FF06EB3B
:10096000EAFF3D0EE926000EEA22E552E750EF6E5F
:1009700009EBE9FF0AEBEAFF020EE926000EEA2284
:10098000EF50E66E02EBE9FF03EBEAFFE552E750BA
:10099000EF6E09EBE9FF0AEBEAFFEF6A0B5001D0BB
:1009A000FC0E46E9E7CFD9FF1200D9CFE6FFE1CF31
:1009B000D9FF85E900EBE6FF01EBE6FF02EBE6FF7E
:1009C00003EBE6FF000EE66E010EE66EF7DE46E98B
:1009D00041E9E7CFD9FF1200D9CFE6FFE1CFD9FF38
:1009E00086E900EBE6FF01EBE6FF02EBE6FF03EB37
:1009F000E6FF04EBE6FF000EE66E010EE66E52DF48
:100A000047E941E9E7CFD9FF1200D9CFE6FFE1CFAF
:100A1000D9FF85E900EBE6FF01EBE6FF02EBE6FF1D
:100A200003EBE6FF9E0EE66E000EE66EC7DE46E9BD
:100A300041E9E7CFD9FF1200D9CFE6FFE1CFD9FFD7
:100A400086E900EBE6FF01EBE6FF02EBE6FF03EBD6
:100A5000E6FF04EBE6FF9E0EE66E000EE66E22DF7A
:100A600047E941E9E7CFD9FF1200D9CFE6FFE1CF4F
:100A7000D9FF85E900EBE6FF01EBE6FF02EBE6FFBD
:100A800003EBE6FF600EE66E000EE66E97DE46E9CB
:100A900041E9E7CFD9FF1200D9CFE6FFE1CFD9FF77
:100AA00086E900EBE6FF01EBE6FF02EBE6FF03EB76
:100AB000E6FF04EBE6FF600EE66E000EE66EF2DE89
:100AC00047E941E9E7CFD9FF1200D9CFE6FFE1CFEF
:100AD000D9FF85E900EBE6FF01EBE6FF02EBE6FF5D
:100AE00003EBE6FF000EE66E000EE66E67DE46E9FB
:100AF00041E9E7CFD9FF1200D9CFE6FFE1CFD9FF17
:100B000086E900EBE6FF01EBE6FF02EBE6FF03EB15
:100B1000E6FF04EBE6FF000EE66E000EE66EC2DEB8
:100B200047E941E9E7CFD9FF120000013E6B000E13
:100B3000E66E010EE66E13DE42E99E0EE66E000ED4
:100B4000E66E0DDE42E9600EE66E000EE66E07DE32
:100B500042E9000EE66E000EE66E01DE42E912008A
:100B6000D38E03001200D9CFE6FFE1CFD9FF83E98E
:100B700000EBE9FF01EBEAFFE9CF4DF0EACF4EF0E1
:100B800000EBE9FF01EBEAFF3D0EE926000EEA2249
:100B9000EF500F0D00014D51F324E96E4E51F4203A
:100BA000EA6EEF5041E9E7CFD9FF120000013E5154
:100BB00001E1120057EC06F0F3CF4DF0F4CF4EF008
:100BC0000001F350F41001E0120037EC06F0F3CF0F
:100BD0004DF0F4CF4EF00001F350F41001E112009B
:100BE0009E0EE66E000EE66EBEDF42E9000901E0F1
:100BF0001200000EE66E010EE66EB5DF42E9000956
:100C000001E01200B0EF05F0000EE66E000EE66E99
:100C1000AADF42E9000902E0010E01D0000EF36EE6
:100C2000F46A120063EC06F0F3CF4DF0F4CF4EF00F
:100C3000F350F41001E112000001010E3E6F9E0E10
:100C4000E66E000EE66E8FDF42E9000908E1000E55
:100C5000E66E010EE66E87DF42E90009F0E0000172
:040C60003E6B1200D5
:0C0C6400D08EF28EF28C9E8C1200F250AA
:100C7000800B800A01E0010E00014D6F4E6B800B6E
:100C800001E04E694DC0F3FF4EC0F4FF1200F25078
:100C9000400B400A01E0010E00014D6F4E6B800BCE
:100CA00001E04E694DC0F3FF4EC0F4FF1200F2BCEC
:100CB00004D0DDDFF350F41002E0000E01D0010E8D
:100CC000F36EF46A1200F3DFF3CF4DF0F4CF4EF081
:100CD0000001F350F41006E1CADFF350F41002E112
:100CE000010E01D0000EF36EF46A1200DACFE4FFB9
:100CF000E2CFDAFFE9CFE4FFEACFE4FFD9CFE4FFA8
:100D0000DACFE4FF49C0E4FF4AC0E4FF4BC0E4FF90
:100D10004CC0E4FFF6CFE4FFF7CFE4FFF5CFE4FFEC
:100D2000F3CFE4FFF4CFE4FFFACFE4FF00EE4DF0A1
:100D3000040EE80403E3EECFE4FFFBD7E6529EA6E1
:100D400004D08A2A9E96F0EC00F0F2A403D0F2942C
:100D500074EC09F09EAC03D09E9C8DEC09F0D6ECAF
:100D600005F0E55200EE50F0040EE80403E3E5CF91
:100D7000EDFFFBD7E5CFFAFFE5CFF4FFE5CFF3FFBB
:100D8000E5CFF5FFE5CFF7FFE5CFF6FFE5CF4CF078
:100D9000E5CF4BF0E5CF4AF0E5CF49F0E5CFDAFFFC
:100DA000E5CFD9FFE5CFEAFFE5CFE9FFE5CFDAFFF1
:100DB0001100D8CFE4FFE0CFE4FFE46EDACFE4FF28
:100DC000E2CFDAFFE9CFE4FFEACFE4FFD9CFE4FFD7
:100DD000DACFE4FF49C0E4FF4AC0E4FF4BC0E4FFC0
:100DE0004CC0E4FFF6CFE4FFF7CFE4FFF5CFE4FF1C
:100DF000F3CFE4FFF4CFE4FFFACFE4FF00EE4DF0D1
:100E0000040EE80403E3EECFE4FFFBD7E6529EA016
:100E100003D09E9086EC09F09EAA03D09E9A31ECF6
:100E200008F0E55200EE50F0040EE80403E3E5CFCD
:100E3000EDFFFBD7E5CFFAFFE5CFF4FFE5CFF3FFFA
:100E4000E5CFF5FFE5CFF7FFE5CFF6FFE5CF4CF0B7
:100E5000E5CF4BF0E5CF4AF0E5CF49F0E5CFDAFF3B
:100E6000E5CFD9FFE5CFEAFFE5CFE9FFE5CFDAFF30
:0C0E7000E550E5CFE0FFE5CFD8FF100013
:040E7C00D9CFE6FFE5
:100E8000E1CFD9FF81E97FE857E8386A396A3A6AE1
:100E90003B6A3C6A3D6A3E6A3F6A010E406E416AA7
:100EA000466E476A4F6A506A516A526A536A546A78
:100EB000556A566A7C0ED36E9B9CD950480FE66EDD
:100EC000DACFE6FF86EC08F042E9170EE66EE66A36
:100ED0006C0EE66EACEC09F043E9D950050FE66EF6
:100EE000DACFE6FF67EC03F042E995EC05F09E0EE1
:100EF000E66E99EC03F041E9D950420FE66EDACF85
:100F0000E6FFEBEC08F042E9920EE66E74EC0AF0B4
:100F100041E97E0EE66EA9EC0AF041E9806A896A31
:100F20000F0E926E58EC0AF032EC06F09F909F9AEA
:100F30009F869D869F8C936A8A6A826A8B6A946870
:100F400012EC06F08B508A6ED950250FE66EDACF80
:100F5000E6FFD950030FE66EDACFE6FF0C0EE66E21
:100F60001CEC05F045E9026E023403E3FC0E025C62
:100F7000E7D703502A0A72E0030A67E0010A3EE05D
:100F8000220A21E0250ADCE1D3EB2FF0AA0E306E15
:100F9000D950250FE66EDACFE6FF03EBE6FF0C0E25
:100FA000E66E65EC05F044E9640ED89041BE03D0CE
:100FB000405C000E415804E2402A000E412203D05A
:100FC000010E406E416AD950250FE66EDACFE6FF7A
:100FD00002EB4DF000014E6B4DBF4E694DC0E6FF78
:100FE0004EC0E6FF0350E66EE66AD950440FE66E47
:100FF000DACFE6FF1AEC0BF048E9A2D7AF0E255C7A
:1010000024E129503C6E3D6A26EB8AFF00013E50E8
:101010003C5C4D6F3F503D584E6F010E4D1911E134
:101020004E510FE1630ED8903FBE03D03E5C000EE0
:101030003F5804E23E2A000E3F2207D03E6A3F6A34
:1010400004D0BCEB3EF0BDEB3FF0316A0250315CA6
:1010500002E2312AFBD7A5EB04F072D70450AA0AAA
:021060006FD748
:0E1062009EAA44D039EC0AF0E66E51C0E9FFB8
:1010700052C0EAFF51C04DF052C04EF0040EEB508A
:101080000001EA6A4D25E96E4E51EA22E552E75029
:10109000EF6E51C0E9FF52C0EAFF040EE926000ED0
:1010A000EA22EF2A51C0E9FF52C0EAFF040EEB50DA
:1010B00004081DE151C0E9FF52C0EAFF51C04DF0E4
:1010C00052C04EF051C0E6FF52C0E6FF1F0EE66E62
:1010D000040EEB50E66ED5EC04F044E951C0E9FF94
:1010E00052C0EAFF040EE926000EEA22EF6A000170
:1010F00055A70BD0AB98AB88000EE66EE66A1E0EC5
:10110000E66EE66AD5EC04F044E91200D9CFE6FFBA
:10111000E1CFD9FF83E900EB51F001EB52F051C070
:10112000E9FF52C0EAFF040EE926000EEA22EF6A48
:0811300041E9E7CFD9FF1200ED
:08113800060EF66E000EF76EC4
:10114000000EF86E00010900F550446F0900F550DB
:10115000456F03E1446701D03DD00900F5503F6F72
:101160000900F550406F0900F550416F0900090072
:10117000F550E96E0900F550EA6E09000900090012
:10118000F550426F0900F550436F09000900F6CF92
:1011900046F0F7CF47F0F8CF48F03FC0F6FF40C029
:1011A000F7FF41C0F8FF0001425302E1435307E05B
:1011B0000900F550EE6E4207F8E24307F9D746C042
:1011C000F6FF47C0F7FF48C0F8FF00014407000ED4
:0611D000455BBFD71200D1
:0A11D600D9CFE6FFE1CFD9FF83E98E
:1011E00000EBE9FF01EBEAFFEE6AED6A41E9E7CFC8
:1011F000D9FF1200D9CFE6FFE1CFD9FF89E941E855
:1012000006EBE9FF07EBEAFFEE2A000EEF220A0EDB
:10121000E66EE66A06EBE9FF07EBEAFFEECFE6FFD4
:10122000EECFE6FF47EC09F0E552E5CF4EF0E7CF11
:101230004DF00001090E4D1917E14E5115E106EB75
:10124000E9FF07EBEAFFE9CF4DF0EACF4EF0E9CF37
:10125000E6FFEACFE6FF140EE66E020EE66E65ECE0
:1012600005F044E9096E093442E9E7CFD9FF1200DD
:1012700043E8D9CFE6FFDACFE6FFE1CFD9FFE2CFEF
:10128000DAFF89E9066A1200F3DF068003D0F0DF97
:1012900001D00682056A046A100EE76ED890023605
:1012A0000336043605360050045C0150055805E34A
:1012B0000050045E0150055A022AE72EF0D706B20C
:1012C000120006B006D084EB00F085EB01F006A01A
:1012D00004D082EB00F083EB01F0E552E5CFDAFFBA
:0812E000E7CFD9FF45E9120038
:0812E800D9CFE6FFE1CFD9FFE9
:1012F00081E946E8000EE66EE66ADBEC0AF042E9B8
:101300000AEC00F047E9E7CFD9FF1200000EE66EC5
:10131000E66AC3EC0AF042E91200D9CFE6FFE1CF5A
:10132000D9FF81E943E835EC0BF0C450016EC3509E
:10133000026EBC50036ED950010FE66EDACFE6FFA5
:101340002F0EE66E030EE66E05EC05F044E99E9C5A
:0813500044E9E7CFD9FF1200C8
:08135800D9CFE6FFDACFE6FF72
:10136000E1CFD9FFE2CFDAFF85E9AC6AAB6A02B020
:10137000AC8802A202D0AC8CAB8C02B4AC8E02A6BC
:1013800002D0AB8801D0AB8A02B8AC8402BAAB867B
:1013900002AC02D09D8A01D09D9A02AE02D09D88F7
:1013A00001D09D9800EBAFFF000101EB4DF04E6BBB
:1013B0004DC0B0FFAC8AAB8E41E9E5CFDAFFE7CF95
:0413C000D9FF12003F
:0C13C400D9CFE6FFDACFE6FFE1CFD9FF7A
:1013D000E2CFDAFF85E9C26AC16AC06A7C0E0114F5
:1013E000C26E00EBC1FF0250040DF350380B000138
:1013F0004E6F02380F0B070B4D6F800E02144D110C
:101400004E11C06E01AE03D09E9C9D8CF28CC280AA
:0C14100041E9E5CFDAFFE7CFD9FF120079
:04141C00D9CFE6FF3F
:10142000DACFE6FFFA0EE3CFD9FFFB0EE3CFDAFF08
:10143000FC0EE3CFE9FFFD0EE3CFEAFFE9CFF3FFB8
:10144000EACFF4FFF80EE35003E1F90EE35008E0B1
:10145000F80EE30602E2F90EE306DECFEEFFF2D766
:10146000FF0EE3CFDAFFE552FF0EE3CFD9FFE552DF
:02147000120068
:0E147200D9CFE6FFDACFE6FFE1CFD9FFE2CF18
:10148000DAFF82E941E8F20E00015517ABAC03D058
:101490005591ABB05581ABB45585ABB25587AE50C5
:1014A000026E025042E9E5CFDAFFE7CFD9FF120022
:1014B0000B0EE66E830EE66EAB0EE66EE2EC09F006
:1014C00043E9830EE66EF3EC0AF041E91200D9CF4E
:1014D000E6FFE1CFD9FF83E90AEC00F041E9E7CF6D
:0814E000D9FF120007EF00F034
:0814E800D9CFE6FFDACFE6FFE1
:1014F000E1CFD9FFE2CFDAFF83E97F0E0014D56E8A
:10150000D76AD66AF29400AE02D0F28A01D0F29A7B
:0E151000D58E41E9E5CFDAFFE7CFD9FF120013
:02151E00D9CF23
:10152000E6FFE1CFD9FF89E91E0E041802E105505C
:101530000CE01F0E041809E1055007E100500224D9
:10154000E96E01500320EA6EEF6A41E9E7CFD9FF67
:02155000120087
:0E155200D9CFE6FFDACFE6FFE1CFD9FFE2CF37
:10156000DAFF83E9FB0E0014BA6EBC6A9E9200AEED
:1015700002D09D8201D09D92BA8441E9E5CFDAFF85
:06158000E7CFD9FF1200C5
:0A158600D9CFE6FFDACFE6FFE1CF90
:10159000D9FFE2CFDAFF84E942E880EB04F081EB87
:1015A00005F005EBCFFF04EBCEFF43E9E5CFDAFF13
:0615B000E7CFD9FF120095
:0A15B600D9CFE6FFDACFE6FFE1CF60
:1015C000D9FFE2CFDAFF84E942E880EB04F081EB57
:1015D00005F005EBD7FF04EBD6FF43E9E5CFDAFFD3
:0615E000E7CFD9FF120065
:0A15E600D9CFE6FFDACFE6FFE1CF30
:1015F000D9FFE2CFDAFF83E97C0E001400014D6FC2
:10160000830EC2144D11C26E41E9E5CFDAFFE7CF78
:04161000D9FF1200EC
:0C161400000EF36E00EE00F0060E01D890
:101620001200EA6002D0EE6AFCD7F350E9601200C3
:04163000EE6AFCD78B
:0C163400D9CFE6FFE1CFD9FF89E942E8F9
:1016400080EB09F081EB0AF043E9E7CFD9FF120004
:1016500015EE00F025EE00F0F86A9CEC08F041EC85
:0A1660000BF03EEC07F0FBD7120080
:06166A00C4CF4FF04FC099
:1016700050F000014F6BC3504F11F36E50C0F4FF98
:02168000120056
:02168200120054
:020000040030CA
:010003003CC0
:01000600C534
:00000001FF
