:020000040000FA
:0600000097EF11F0120061
:020006001200E6
:06000800A9EF0BF012004D
:02000E00C2909E
:040010009D9C1200A1
:04001400C282120092
:060018000BEF0CF01200DA
:02001E000100DF
:0C002000742300004800000002000000F3
:04002C0090DB86E9F6
:100030000150010600090CE002EBE6FF03EBE6FFCE
:1000400000EBE6FF69DBF4E13C1DF2E1010E01D0BB
:10005000000E41E9E5CFDAFFE7CFD9FF120077DBE9
:1000600089E97BE80A6A0B6A02EBF6FF03EBF7FF0C
:1000700004EBF8FF0800F550096E095001E12DD39B
:10008000250E095C01E01BD30C6A0D6A0E6A0F6A2B
:10009000106A2DDB2D0E095C0CE02B0E095C09E0CB
:1000A000200E095C06E0230E095C03E0300E095CBB
:1000B00015E10950300A10E0130A0CE0030A08E0C9
:1000C0000B0A04E0060AE5E10C80E3D70C82E1D7D5
:1000D0000C84DFD70C86DDD70C88DBD72A0E095CB1
:1000E00013E1A5DB0DE30C801CEB3BF01DEB3CF0BA
:1000F00000013B6D3C1F000E3C233B510D6E02D0B6
:100100009CEB0DF0F4DA07D0126A3FDB02E06BDB08
:10011000FCD792EB0DF00CB00C982E0E095C15E19B
:10012000E6DA2A0E095C08E182DB04E29CEB0EF0C1
:10013000010E0F6EDCDA09D0126A27DB02E053DB16
:10014000FCD792EB0EF0010E0F6E680E095C07E112
:10015000CEDA680E095C1DE1030E106E19D0740E24
:10016000095C16E07A0E095C13E0480E095C06E0B3
:10017000540E095C03E05A0E095C02E1020E07D03E
:100180006C0E095C03E06A0E095C03E1010E106E5F
:10019000AEDA09506E0A01E16ED21E0A01E128D1E1
:1001A000200A01E125D13F0A01E1FDD01A0A01E14F
:1001B000FAD00D0A01E1F7D0200A01E1F4D03A0AA1
:1001C00001E1F1D0200A01E1EED0260A01E1EAD0F6
:1001D0000D0A01E1E7D01A0A01E19ED0200A3BE0B6
:1001E000300A1AE0460A0EE0250A01E072D2D95020
:1001F000020FE96E000EDA20EA6E010EEE5E000ECE
:10020000EE5AEE5A0FDB250EE66E86DA03E13C1D50
:1002100001E159D20A2A5BD2116A0D50010803E2AA
:100220000D04116EF5DA115007E0010E0C1404E113
:100230006DDA01E048D2116AD3DAEF50096ECBDAF9
:1002400003E13C1D01E13FD20A2A000E0B225EDAD7
:1002500001E13FD238D2020E105C08E1030E4EDA03
:10026000EE50176EEE50186EEF5007D0E7DA3D6B88
:100270003B51176E3C51186E3D51196E17EBE6FF5E
:1002800018EBE6FF19EBE6FFB7EC0EF043E942C0CE
:100290003BF043C03CF044C03DF000013B511C6EBC
:1002A0003C511D6E0F5006E01C500E5C03E20E50D8
:1002B0001C6E1D6A1C500D5C02E29CEB0DF050DAC6
:1002C00005E00D500E5C02E28EEB0DF00CB004D098
:1002D0001DDA01E0F8D1116A126A17EBF6FF18EB8C
:1002E000F7FF19EBF8FF0800F550096E095010E010
:1002F0000D50125C0DE26FDA03E13C1D01E1E3D128
:100300000A2A000E0B22122AD950170F55DAEBD702
:10031000FDD901E1DED1D7D163DAEE501A6EED508E
:100320001B6E1AEBE6FF1BEBE6FFA9EC0EF042E9B1
:10033000F3501C6EF4501D6E0F5006E01C500E5C06
:1003400003E20E501C6E1D6A1C500D5C02E29CEB19
:100350000DF006DA05E00D500E5C02E28EEB0DF0BA
:100360000CB004D0D3D901E0AED1116A126A1AEBF5
:10037000E9FF1BEBEAFFEF50096E09500FE00D504B
:10038000125C0CE228DA03E13C1D01E19CD10A2A4F
:10039000000E0B22122A1A2A1B22E9D7B7D901E133
:1003A00098D191D10C8E10040AE1040EA7D9EE5019
:1003B000136EEE50146EEE50156EEF5032D0030EE9
:1003C000105C16E10CAE0CD00BDAEFCF3BF0000165
:1003D0003C6B3D6B3E6B3BAF23D03C693D691FD00E
:1003E000FFD9EFCF3BF000013B51136E146A20D0D0
:1003F000020E105C0CE10CAE06D0030E7FD9B6D90C
:100400003DAF0ED00CD0030E79D9B0D909D00CAEC7
:100410000AD014DA3D6B3E6B3CAF02D03D693E69B9
:10042000BCD9166E07D00ADA3B51136E3C51146EDC
:10043000156A166A0F5002E1010E0E6E1E6A1F6ADF
:10044000D950400FE66E000EDA20E66EE552E55018
:10045000436EE750426E416A116A0A0E106E0950EF
:10046000780A12E0200A10E0280A0CE0200A0AE0CC
:100470003F0A06E00D0A02E0200A08E1020E05D05C
:10048000080E03D0080E0926100E106E0CBE02D006
:100490000C920C94800E0C1417E0163415E3E668E9
:1004A000E668E668E66842D9FEEC0CF0E552E5CF76
:1004B0003EF0E5CF3DF0E5CF3CF0E7CF3BF000016B
:1004C0006CD9166E2D0E07D00CA202D02B0E03D0C5
:1004D0000CA404D0200E206E1E2A01D0206A0E50DB
:1004E00005E1135014101510161061E00001600EA4
:1004F0003B6F230E3C6F000E3D6F83D9BBEC0CF0BD
:10050000E552E5CF41F0E5CF40F0E5CF3FF0E7CF52
:100510003EF000013B513E25F36E3C513F21F46E0D
:100520003D514021F86EF4CFF7FFF3CFF6FF0800FE
:10053000F550126E580E095C05E1610E125C02E383
:10054000200E125E5ED9B8EC0CF0E552E550166E46
:10055000E550156EE550146EE750136E42EBE9FF5F
:1005600043EBEAFF4206000E435A12EBEFFF1E2A4E
:100570001350141015101610B9E10CA619D06F0EF7
:10058000095C06E10E501E5C13E31E280E6E10D0AF
:10059000780E095C09E0580E095C06E0620E095C01
:1005A00003E0420E095C04E1020E1F6E01D01E6AD8
:1005B000100E0C1407E00D500E5C04E20F5002E127
:1005C0008DEB0EF00E501E5C03E21E500E5E01D04D
:1005D0000E6A0E501E241F24D8800D5407E20E50C0
:1005E0000D5CD8801E54D8801F54116E010E0C145F
:1005F00006E1115004E08AD866E10AD9116A205058
:1006000007E010D920EBE6FF87D802E13C1D5BE054
:100610001F500BE007D9300EE66E7ED802E13C1D7C
:1006200052E0D9D802E13C1D4EE00E501F5C02E2C0
:100630001F500E5E300EE66E0EEBE6FFDCD843E197
:10064000422A000E432242EBE9FF43EBEAFFEF5060
:10065000126E125008E0E6D812EBE6FF5DD8F0E12A
:100660003C1DEEE130D052D82EE10E501E24112454
:100670001F240A262CD01050030A1CE0010A14E0A3
:10068000030A07E0ADD8C9D80AEBEEFF0BEBEDFF8C
:1006900020D08BD83E6B3CAF02D03D693E69A0D8DC
:1006A0004ED83EC0EEFF15D080D83CBF3D6998D8EB
:1006B00046D80FD095D8B1D80AEBEFFF0AD08BD827
:1006C00005E13C1D03E1F368F4680BD00A2A000E33
:1006D0000B22D950020F70D8CDD40AEBF3FF0BEBED
:1006E000F4FF7CE9E5CFDAFFE7CFD9FF1200D9505C
:1006F000020F62D80800F550096E1200005E000E6D
:10070000015A00EBE9FF01EBEAFF1200200EE66E52
:1007100011EBE6FFFBEF03F0A6EC0FF043E9F3CF9C
:100720003BF0F4CF3CF00001F31C120013EBE6FFAA
:1007300014EBE6FF15EBE6FF16EBE6FF12006DD8B3
:100740003BC0EEFF3CC0EEFF3DC0EEFF1200D9CF34
:10075000E6FFDACFE6FFE1CFD9FFE2CFDAFF120002
:100760001C500D5C116E54D80F501200EECF3BF0B0
:10077000EECF3CF0EFCF3DF000013E6B1200EECF2C
:100780003BF0EFCF3CF0000112000950E66EE66A44
:1007900067EC11F042E9F35012003B51136E3C51EB
:1007A000146E3D51156E3E5112000AEB3BF00BEBFF
:1007B0003CF000013D6B1200E96E000EDA20EA6E9B
:1007C000EF2AEECFF6FF000EEF22EECFF7FFEF227B
:1007D000EECFF8FF120026D809EBE6FF8CEF03F00E
:1007E000020E7EEF03F00A0E1202F3500924D00F1E
:1007F000126E77EF03F016D816EC00F044E900090A
:10080000120010EBE6FFE66AE66AE66A96EF03F08E
:1008100011500A26000E0B221200EE50EFCFEAFF15
:10082000E96E120005EBE6FF06EBE6FF1200D8DFEB
:10083000EE501C6EED501D6E1D341200D1DFBFEF67
:0208400003F0C3
:0E084200D9CFE6FFE1CFD9FF82E941E9E7CF48
:10085000D9FF1200D9CFE6FFE1CFD9FF84E941E902
:10086000E7CFD9FF1200D9CFE6FFE1CFD9FF82E968
:1008700041E9E7CFD9FF1200D9CFE6FFE1CFD9FF99
:1008800084E946C0E9FF47C0EAFF1B0EE926000ED7
:10089000EA22EF6A46C0E9FF47C0EAFF1B0EEB50B1
:1008A000D880025432E246C0E9FF47C0EAFF1B0E7F
:1008B000EB500024E96E000E0120EA6EEF50E66E68
:1008C00046C0E9FF47C0EAFF100EE926000EEA2203
:1008D000E9CF3BF0EACF3CF046C0E9FF47C0EAFF72
:1008E0001B0EEB500001EA6A3B25E96E3C51EA22FF
:1008F000E552E750EF6E46C0E9FF47C0EAFF1B0E26
:10090000E926000EEA22EF2AC5D746C0E9FF47C014
:10091000EAFF1B0EE926000EEA2202EBEFFF46C0BB
:10092000E9FF47C0EAFF1C0EE926000EEA22010E8D
:10093000EF6E46C0E9FF47C0EAFF100EEB50C96EEC
:10094000C68841E9E7CFD9FF1200D9CFE6FFE1CF52
:10095000D9FF82E946C0E9FF47C0EAFF0C0EE9264D
:10096000000EEA22010EEF6E46C0E9FF47C0EAFF23
:100970000B0EE926000EEA22EF6A005035E0C7AA06
:100980001DD046C0E9FF47C0EAFF0D0EE926000E64
:10099000EA22050EEF6E46C0E9FF47C0EAFF0F0EE0
:1009A000E926000EEA22EF2A46C0E9FF47C0EAFF27
:1009B0000E0EE926000EEA22050E1FD0C7A40AD0AB
:1009C00046C0E9FF47C0EAFF0D0EE926000EEA2205
:1009D000080E13D046C0E9FF47C0EAFF0D0EE92616
:1009E000000EEA22070E09D046C0E9FF47C0EAFF21
:1009F0000D0EE926000EEA22060EEF6E41E9E7CF62
:100A0000D9FF1200D9CFE6FFE1CFD9FF81E958E83D
:100A1000026A036A046A056A066AC6AC20D0C69CEC
:100A200046C0E9FF47C0EAFF0D0EE926000EEA22A4
:100A3000050EEF6E010E066E46C0E9FF47C0EAFFE5
:100A40000F0EE926000EEA22EF2A46C0E9FF47C052
:100A5000EAFF0E0EE926000EEA22040EEF6EC7A092
:100A600004D0C950016E010E026E065001E05FD144
:100A700046C0E9FF47C0EAFF0D0EEB50070A01E14F
:100A8000B4D00F0A01E17FD00E0A16E0030A01E09C
:100A90004ED1C7A64CD102EBE6FF57DF41E946C075
:100AA000E9FF47C0EAFF0D0EEB50080801E03FD117
:100AB000026A010E056E3BD1C7A822D046C0E9FFED
:100AC00047C0EAFF0C0EE926000EEA22EF2A025088
:100AD00001E123D1C7AAD1D046C0E9FF47C0EAFF50
:100AE0000F0EE926000EEA22EF2A46C0E9FF47C0B2
:100AF000EAFF0E0EE926000EEA22060EEF6E0DD179
:100B0000025001E114D146C0E9FF47C0EAFF0C0ED4
:100B1000E926000EEA22EF2AC7BA18D0C7B40AD0D5
:100B200046C0E9FF47C0EAFF0D0EE926000EEA22A3
:100B3000070EFCD046C0E9FF47C0EAFF0D0EE926CC
:100B4000000EEA22080EEF6E010ED1D046C0E9FF7A
:100B500047C0EAFF0F0EE926000EEA22EF2A46C040
:100B6000E9FF47C0EAFF0D0EE926000EEA22050E56
:100B7000EF6E46C0E9FF47C0EAFF0E0EE926000E01
:100B8000EA22060ED3D046C0E9FF47C0EAFF1C0E9A
:100B9000EB5000013B6F1B0EEB503B5D01E3BDD002
:100BA00046C0E9FF47C0EAFF100EE926000EEA2220
:100BB000E9CF3BF0EACF3CF046C0E9FF47C0EAFF8F
:100BC0001C0EEB50EA6A3B25E96E3C51EA22EF50DD
:100BD000C96E46C0E9FF47C0EAFF1C0EE926000EB9
:100BE000EA22EF2A010E036EA2D0C7A849D046C060
:100BF000E9FF47C0EAFF0C0EE926000EEA22EF2AC1
:100C000002503BE0C7AA1CD046C0E9FF47C0EAFF3C
:100C100046C03BF047C03CF00B0EEB500001EA6AC7
:100C20003B25E96E3C51EA2201EBEFFF46C0E9FFAC
:100C300047C0EAFF0B0EE926000EEA22EF2A1DD07C
:100C400046C0E9FF47C0EAFF0F0EE926000EEA2280
:100C5000EF2A46C0E9FF47C0EAFF0E0EE926000E64
:100C6000EA22060EEF6E46C0E9FF47C0EAFF0D0E0E
:100C7000E926000EEA22050E4FD0010E046E4DD07B
:100C8000025055E046C0E9FF47C0EAFF0C0EE926D6
:100C9000000EEA22EF2AC7AA1CD046C0E9FF47C0CF
:100CA000EAFF46C03BF047C03CF00B0EEB500001A2
:100CB000EA6A3B25E96E3C51EA2201EBEFFF46C0B0
:100CC000E9FF47C0EAFF0B0EE926000EEA22EF2AF1
:100CD0002ED0C7A40FD046C0E9FF47C0EAFF0D0ED3
:100CE000E926000EEA22080EEF6E010E046E056E74
:100CF000026A1DD046C0E9FF47C0EAFF0F0EE92691
:100D0000000EEA22EF2A46C0E9FF47C0EAFF0E0EB6
:100D1000E926000EEA22060EEF6E46C0E9FF47C044
:100D2000EAFF0D0EE926000EEA22050EEF6E0250D4
:100D300002E1035002E0C6A8C68846C0E9FF47C0EA
:100D4000EAFF0B0EEB5009081FE204501DE146C0FC
:100D5000E9FF47C0EAFF0D0EE926000EEA22050E64
:100D6000EF6E46C0E9FF47C0EAFF0F0EE926000E0E
:100D7000EA22EF2A46C0E9FF47C0EAFF0E0EE92645
:100D8000000EEA22070EEF6E045031E046C0E9FF84
:100D900047C0EAFF0C0EEB50E66E46C03BF047C082
:100DA0003CF00B0EEB500001EA6A3B25E96E3C512A
:100DB000EA22E552E750EF6E46C0E9FF47C0EAFF7E
:100DC00046C03BF047C03CF046C0E6FF47C0E6FFE8
:100DD000280EE66E0B0EEB50010FE66E16EC09F0D6
:100DE00044E946C0E9FF47C0EAFF0B0E29D046C0E0
:100DF000E9FF47C0EAFF0F0EEB5000013B6F010E09
:100E00003B5D22E346C0E9FF47C0EAFF0F0EEB500F
:100E1000076E0E0EEB50086E0C0EEB50096ED9509B
:100E2000070FE66EDACFE6FF290EE66E030EE66EDA
:100E300016EC09F044E946C0E9FF47C0EAFF0F0E8F
:100E4000E926000EEA22EF6A05504FE0136A146AA1
:100E500046C0E9FF47C0EAFFEF50AA0845E18A72A1
:100E600015EC0AF0F3CF3BF0F4CF3CF00001F35067
:100E7000F41015E0D9500A0FE66EDACFE6FFD9502C
:100E8000120FE66EDACFE6FF080EE66E8DEC09F083
:100E900045E9176E186AE8AE1ED018681CD0136AB0
:100EA000146A080ED89014BE03D0135C000E1458B8
:100EB00012E2D9500A0FE66EDACFE6FFFE0EE350DB
:100EC0001324E96E41E9E5501420EA6EEF68132A15
:100ED000000E1422E6D7D9500A0FE66EDACFE6FFED
:100EE000080EE66EC9DC43E9056A59E9E7CFD9FF88
:100EF0001200D9CFE6FFE1CFD9FF83E900EB46F03E
:100F000001EB47F046C0E9FF47C0EAFF0B0EE926B8
:100F1000000EEA22EF6A46C0E9FF47C0EAFF0C0E66
:100F2000E926000EEA22EF6A46C0E9FF47C0EAFF61
:100F30000D0EE926000EEA22050EEF6E46C0E9FF0F
:100F400047C0EAFF0F0EE926000EEA22EF6A41E9E8
:100F5000E7CFD9FF1200D9CFE6FFE1CFD9FF82E971
:100F60009486948800EBC8FFC76AC66AC56A0E0EED
:100F7000C612C78EC580C68A41E9E7CFD9FF1200E5
:100F8000D9CFE6FFE1CFD9FF83E941E800EBE9FFE4
:100F900001EBEAFF380EE926000EEA22EF6A00EBC9
:100FA000E9FF01EBEAFF390EE926000EEA22EF6ABB
:100FB000036A040E035C0FE200EBE9FF01EBEAFFBA
:100FC00003500E0DE950F324E96EEA50F420EA6E66
:100FD000EF6A032AEED742E9E7CFD9FF1200D9CF53
:100FE000E6FFE1CFD9FF87E945E803500A6E0B6AB7
:100FF00004EBE9FF05EBEAFF380EE926000EEA22D2
:10100000EF50076E04EBE9FF05EBEAFF07500E0D0A
:101010000001F350E924086EF450EA20096E08EB51
:10102000E9FF09EBEAFFEF5002E0FF0E48D008EBC2
:10103000E9FF09EBEAFFEE5203EBEFFF08EBE9FFF4
:1010400009EBEAFF020EE926000EEA2202EBEFFFAF
:101050000AEBE6FF0BEBE6FF00EBE6FF01EBE6FF3A
:1010600008EBE9FF09EBEAFF030EE926000EEA228E
:10107000E9CF3BF0EACF3CF0E9CFE6FFEACFE6FF6D
:101080007EEC0EF046E904EBE9FF05EBEAFF380ED3
:10109000E926000EEA22EF28030BE66E04EBE9FFD7
:1010A00005EBEAFF380EE926000EEA22E552E7508A
:1010B000EF6E08EBE9FF09EBEAFF010EEF6E46E980
:1010C000E7CFD9FF1200D9CFE6FFE1CFD9FF88E9FA
:1010D00045E805EBE9FF06EBEAFF390EE926000ECD
:1010E000EA22EF50086E05EBE9FF06EBEAFF085035
:1010F0000E0D0001F350E924096EF450EA200A6E47
:1011000009EBE9FF0AEBEAFFEF045BE109EBE9FF1A
:101110000AEBEAFFEE52EF50045C02E2FD0E52D001
:1011200009EBE9FF0AEBEAFFEE52EF500B6E0C6A97
:101130000BEBE6FF0CEBE6FF09EBE9FF0AEBEAFF3E
:10114000030EE926000EEA22E9CF3BF0EACF3CF09D
:10115000E9CFE6FFEACFE6FF00EBE6FF01EBE6FFB3
:101160007EEC0EF046E905EBE9FF06EBEAFF390EEF
:10117000E926000EEA22EF28030BE66E05EBE9FFF5
:1011800006EBEAFF390EE926000EEA22E552E750A7
:10119000EF6E09EBE9FF0AEBEAFF020EE926000E0B
:1011A000EA22EF50E66E02EBE9FF03EBEAFFE552BD
:1011B000E750EF6E09EBE9FF0AEBEAFFEF6A0B502D
:1011C00001D0FC0E46E9E7CFD9FF1200D9CFE6FFE8
:1011D000E1CFD9FF85E900EBE6FF01EBE6FF02EB8B
:1011E000E6FF03EBE6FF000EE66E010EE66EF7DEAD
:1011F00046E941E9E7CFD9FF1200D9CFE6FFE1CFB9
:10120000D9FF86E900EBE6FF01EBE6FF02EBE6FF24
:1012100003EBE6FF04EBE6FF000EE66E010EE66E62
:1012200052DF47E941E9E7CFD9FF1200D9CFE6FF06
:10123000E1CFD9FF85E900EBE6FF01EBE6FF02EB2A
:10124000E6FF03EBE6FFBA0EE66E000EE66EC7DEC3
:1012500046E941E9E7CFD9FF1200D9CFE6FFE1CF58
:10126000D9FF86E900EBE6FF01EBE6FF02EBE6FFC4
:1012700003EBE6FF04EBE6FFBA0EE66E000EE66E49
:1012800022DF47E941E9E7CFD9FF1200D9CFE6FFD6
:10129000E1CFD9FF85E900EBE6FF01EBE6FF02EBCA
:1012A000E6FF03EBE6FF800EE66E000EE66E97DECD
:1012B00046E941E9E7CFD9FF1200D9CFE6FFE1CFF8
:1012C000D9FF86E900EBE6FF01EBE6FF02EBE6FF64
:1012D00003EBE6FF04EBE6FF800EE66E000EE66E23
:1012E000F2DE47E941E9E7CFD9FF1200D9CFE6FFA7
:1012F000E1CFD9FF85E900EBE6FF01EBE6FF02EB6A
:10130000E6FF03EBE6FF000EE66E000EE66E67DE1C
:1013100046E941E9E7CFD9FF1200D9CFE6FFE1CF97
:10132000D9FF86E900EBE6FF01EBE6FF02EBE6FF03
:1013300003EBE6FF04EBE6FF000EE66E000EE66E42
:10134000C2DE47E941E9E7CFD9FF120000013A6B5D
:10135000000EE66E010EE66E13DE42E9BA0EE66E90
:10136000000EE66E0DDE42E9800EE66E000EE66EC1
:1013700007DE42E9000EE66E000EE66E01DE42E98F
:101380001200D38E03001200D9CFE6FFE1CFD9FFC0
:1013900083E900EBE9FF01EBEAFFE9CF3BF0EACF9D
:1013A0003CF000EBE9FF01EBEAFF390EE926000E05
:1013B000EA22EF500E0D00013B51F324E96E3C513F
:1013C000F420EA6EEF5041E9E7CFD9FF12000001A7
:1013D0003A5101E112008AEC0BF0F3CF3BF0F4CF6D
:1013E0003CF00001F350F41001E012006AEC0BF045
:1013F000F3CF3BF0F4CF3CF00001F350F41001E1E7
:101400001200BA0EE66E000EE66EBEDF42E900097B
:1014100001E01200000EE66E010EE66EB5DF42E955
:10142000000901E01200C1EF09F0000EE66E000EA7
:10143000E66EAADF42E9000902E0010E01D0000ECB
:10144000F36EF46A120096EC0BF0F3CF3BF0F4CF9E
:101450003CF0F350F41001E112000001010E3A6F6C
:10146000BA0EE66E000EE66E8FDF42E9000908E173
:10147000000EE66E010EE66E87DF42E90009F0E03D
:0614800000013A6B1200AE
:0A148600D9CFE6FFE1CFD9FF81E9DD
:101490007FE847E8326A336A346A356A010E386E8B
:1014A000396A416A426A436A446A456A466A9B8C61
:1014B000D9503A0FE66EDACFE6FFA4EC0DF042E920
:1014C000190EE66EE66A6C0EE66E2BEC0FF043E941
:1014D000D950050FE66EDACFE6FF79EC07F042E966
:1014E000A6EC09F09E0EE66EABEC07F041E9920E19
:1014F000E66EECEC10F041E9350EE66E91EC10F082
:1015000041E9806A896A0F0E926ED0EC10F065ECAA
:101510000BF09F909F9A9F869D869F8C936A8A6A04
:10152000010EE66E1C0EE66EE66AD9EC0FF043E99A
:1015300023EC0AF0D950230FE66EDACFE6FFD9503C
:10154000030FE66EDACFE6FF0B0EE66E2DEC09F028
:1015500045E9026E023411E3FC0E025CE9E002EBA5
:101560003BF000013C6B3BBF3C693BC0E6FF3CC02D
:10157000E6FFD30EE66E1B0E12D003502A0A01E1DD
:1015800099D0030A64E0010A5EE0220A41E0250ADC
:101590000CE00350E66EE66A740EE66E1B0EE66E15
:1015A000E66AD9EC0FF045E9C3D7030E266E040EA8
:1015B000276E050E286EC5EB29F02A6AD950230F35
:1015C000E66EDACFE6FF03EBE6FF080EE66E76EC9A
:1015D00009F044E9463404E245500008000E465440
:1015E00004E3452A000E462202D0456A466A455069
:1015F000461002E1870E08D0010E451804E146505E
:1016000002E18F0E01D0970EE66E4FEC11F041E92A
:10161000D950230FE66EDACFE6FF02EB3BF0000174
:101620003C6B3BBF3C693BC0E6FF3CC0E6FF035060
:10163000E66EE66AD950360FE66EDACFE6FF6BEC5F
:1016400010F048E975D7AF0E235C01E18A700350B2
:10165000E66EE66AB70EE66E1B0EE66EE66AD9EC3B
:101660000FF045E92B6A02502B5C19E20001D950BA
:10167000230F3B6FDACF3CF02B50EA6A3B25E96E33
:10168000DA50EA22EF50E66EE66AB30EE66E1B0E03
:10169000E66EE66AD9EC0FF045E92B2AE4D7B00EE6
:1016A000E66E1B0EE66EE66AD9EC0FF043E9A3EB9B
:1016B00004F03ED7A00EE66E1B0EE66EE66AD9EC8D
:0A16C0000FF043E90450AA0A33D7E3
:0616CA00D08EF28EF28CBE
:1016D0009E8C1200F250800B800A01E0010E000186
:1016E0003B6F3C6B800B01E03C693BC0F3FF3CC0AF
:1016F000F4FF1200F250400B400A01E0010E00011D
:101700003B6F3C6B800B01E03C693BC0F3FF3CC08E
:10171000F4FF1200F2BC04D0DDDFF350F41002E05D
:10172000000E01D0010EF36EF46A1200F3DFF3CF66
:101730003BF0F4CF3CF00001F350F41006E1CADFB7
:10174000F350F41002E1010E01D0000EF36EF46AC2
:101750001200DACFE4FFE2CFDAFFE9CFE4FFEACF0D
:10176000E4FFD9CFE4FFDACFE4FF42C0E4FF43C097
:10177000E4FF44C0E4FF45C0E4FFF6CFE4FFF7CF49
:10178000E4FFF5CFE4FFF3CFE4FFF4CFE4FFFACFBB
:10179000E4FF00EE3BF0070EE80403E3EECFE4FFC6
:1017A000FBD7E6529EA603D09E9602EC05F0F2A46B
:1017B00003D0F2946CEC0FF09EAC03D09E9C85ECB1
:1017C0000FF0E7EC09F0E55200EE41F0070EE804F7
:1017D00003E3E5CFEDFFFBD7E5CFFAFFE5CFF4FF5D
:1017E000E5CFF3FFE5CFF5FFE5CFF7FFE5CFF6FF58
:1017F000E5CF45F0E5CF44F0E5CF43F0E5CF42F04B
:10180000E5CFDAFFE5CFD9FFE5CFEAFFE5CFE9FF86
:10181000E5CFDAFF1100D8CFE4FFE0CFE4FFE46EBC
:10182000DACFE4FFE2CFDAFFE9CFE4FFEACFE4FF6B
:10183000D9CFE4FFDACFE4FF42C0E4FF43C0E4FFC6
:1018400044C0E4FF45C0E4FFF6CFE4FFF7CFE4FF78
:10185000F5CFE4FFF3CFE4FFF4CFE4FFFACFE4FFEA
:1018600000EE3BF0070EE80403E3EECFE4FFFBD706
:10187000E6529EA003D09E907EEC0FF09EAA03D06D
:101880009E9A4FEC0DF0E55200EE41F0070EE80491
:1018900003E3E5CFEDFFFBD7E5CFFAFFE5CFF4FF9C
:1018A000E5CFF3FFE5CFF5FFE5CFF7FFE5CFF6FF97
:1018B000E5CF45F0E5CF44F0E5CF43F0E5CF42F08A
:1018C000E5CFDAFFE5CFD9FFE5CFEAFFE5CFE9FFC6
:1018D000E5CFDAFFE550E5CFE0FFE5CFD8FF100018
:1018E00043E8D9CFE6FFDACFE6FFE1CFD9FFE2CF79
:1018F000DAFF89E9066A1200F3DF068003D0F0DF21
:1019000001D00682056A046A100EE76ED89002368E
:101910000336043605360050045C0150055805E3D3
:101920000050045E0150055A022AE72EF0D706B295
:10193000120006B006D084EB00F085EB01F006A0A3
:1019400004D082EB00F083EB01F0E552E5CFDAFF43
:10195000E7CFD9FF45E9120045E8D9CFE6FFDACF56
:10196000E6FFE1CFD9FFE2CFDAFF8FE90C6A120080
:10197000F3DF0C8003D0F0DF01D00C820B6A0A6A1F
:10198000096A086A200EE76ED890043605360636D6
:101990000736083609360A360B360050085C015007
:1019A000095802500A5803500B5809E30050085ECA
:1019B0000150095A02500A5A03500B5A042AE72EC2
:1019C000E4D70CB212000CB00AD088EB00F089EB1F
:1019D00001F08AEB02F08BEB03F00CA008D084EB53
:1019E00000F085EB01F086EB02F087EB03F0E552A7
:1019F000E5CFDAFFE7CFD9FF49E9120044E8D9CFB4
:101A0000E6FFDACFE6FFE1CFD9FFE2CFDAFF8EE9DA
:101A100080EB08F081EB09F082EB0AF083EB0BF02E
:101A200004500802F350006EF450016E0450090295
:101A3000F3500126000EF420026E04500A02F35007
:101A40000226000EF420036E04500B02F35003260E
:101A500005500802F3500126F4500222000E032222
:101A600005500902F3500226F450032205500A02E1
:101A7000F350032606500802F3500226F4500322C6
:101A800006500902F350032607500802F3500326BC
:0E1A9000E552E5CFDAFFE7CFD9FF48E9000CB9
:021A9E009EAAFE
:101AA00044D0B1EC10F0E66EFEC0E9FFFFC0EAFFE3
:101AB000FEC03BF0FFC03CF0040EEB500001EA6AB0
:101AC0003B25E96E3C51EA22E552E750EF6EFEC03D
:101AD000E9FFFFC0EAFF040EE926000EEA22EF2A22
:101AE000FEC0E9FFFFC0EAFF040EEB5004081DE151
:101AF000FEC0E9FFFFC0EAFFFEC03BF0FFC03CF0C4
:101B0000FEC0E6FFFFC0E6FF1F0EE66E040EEB50C0
:101B1000E66EE6EC08F044E9FEC0E9FFFFC0EAFF2C
:101B2000040EE926000EEA22EF6A00014AA70BD054
:101B3000AB98AB88000EE66EE66A1E0EE66EE66AAD
:101B4000E6EC08F044E91200D9CFE6FFE1CFD9FF77
:101B500083E900EBFEF001EBFFF0FEC0E9FFFFC000
:101B6000EAFF040EE926000EEA22EF6A41E9E7CF18
:041B7000D9FF120087
:0C1B74004572726F723A20556E657870F1
:101B80006563746564206D736720696E2071756587
:101B900075652C2074797065203D2025780D0A002C
:101BA00049324320536C617665205265710D0A00FD
:101BB0000D0A002025780049324320496E74657271
:101BC0007275707420726563656976656420257826
:101BD0003A20004572726F723A204261642068694F
:101BE0006768207072696F726974792072656365C5
:101BF0006976652C20636F6465203D2025780D0A89
:101C00000048656C6C6F0D0A004D53473A202564FF
:101C10002025642025730D0A0053656E6445727299
:101C20006F722025640D0A0054494D4552313A2007
:0B1C300025642025642025640D0A00B7
:041C3C00D9CFE6FF17
:101C4000E1CFD9FF83E900EBE9FF01EBEAFFEE6AA0
:101C5000ED6A41E9E7CFD9FF1200D9CFE6FFE1CF26
:101C6000D9FF89E941E806EBE9FF07EBEAFFEE2A35
:101C7000000EEF220A0EE66EE66A06EBE9FF07EBBE
:101C8000EAFFEECFE6FFEECFE6FF7FEC0CF0E55289
:101C9000E5CF3CF0E7CF3BF00001090E3B192AE10C
:101CA0003C5128E106EBE9FF07EBEAFFE9CF3BF007
:101CB000EACF3CF0E9CFE6FFEACFE6FF140EE66E8E
:101CC000020EE66E76EC09F044E9096E093412E37F
:101CD00009EB3BF000013C6B3BBF3C693BC0E6FFBE
:101CE0003CC0E6FF190EE66E1C0EE66EE66AD9EC05
:0C1CF0000FF045E942E9E7CFD9FF1200F0
:041CFC00D9CFE6FF57
:101D0000DACFE6FFFA0EE3CFD9FFFB0EE3CFDAFF1F
:101D1000FC0EE3CFE9FFFD0EE3CFEAFFE9CFF3FFCF
:101D2000EACFF4FFF80EE35003E1F90EE35008E0C8
:101D3000F80EE30602E2F90EE306DECFEEFFF2D77D
:101D4000FF0EE3CFDAFFE552FF0EE3CFD9FFE552F6
:101D50001200FE0EE3CFE9FFFF0EE3CFEAFFF36AC6
:101D6000F46AEE5203E0F34AF42AFBD71200FF0EA6
:101D7000E3CFF8FFE552FF0EE3CFF7FFE552FF0E8A
:101D8000E3CFF6FFE552E66AE66AE66A0900F55235
:101D900009E0FD0EE32A05E1FE0EE32A02E1FF0E53
:101DA000E32AF4D7FD0EE3CF42F0FE0EE3CF43F07B
:081DB000FF0EE3CF44F0120026
:081DB8001E0EF66E000EF76E20
:101DC000000EF86E00010900F550F96F0900F5509A
:101DD000FA6F03E1F96701D03DD00900F550F46FC7
:101DE0000900F550F56F0900F550F66F090009007C
:101DF000F550E96E0900F550EA6E09000900090086
:101E0000F550F76F0900F550F86F09000900F6CF9B
:101E1000FBF0F7CFFCF0F8CFFDF0F4C0F6FFF5C013
:101E2000F7FFF6C0F8FF0001F75302E1F85307E0AF
:101E30000900F550EE6EF707F8E2F807F9D7FBC096
:101E4000F6FFFCC0F7FFFDC0F8FF0001F907000E28
:061E5000FA5BBFD712008F
:0A1E5600D9CFE6FFDACFE6FFE1CFB7
:101E6000D9FFE2CFDAFF85E9AC6AAB6A02B0AC8891
:101E700002A202D0AC8CAB8C02B4AC8E02A602D013
:101E8000AB8801D0AB8A02B8AC849E9802BAAB860C
:101E900002AC02D09D8A01D09D9A9E9A02AE02D0D9
:101EA0009D8801D09D9800EBAFFF000101EB3BF056
:101EB0003C6B3BC0B0FFAC8AAB8E949C948EAC5014
:101EC000100B04E0AC50800B01E1948C41E9E5CFAC
:081ED000DAFFE7CFD9FF120091
:081ED800D9CFE6FFE1CFD9FFED
:101EE00081E946E8000EE66EE66A37EC11F042E959
:101EF0000AEC00F047E9E7CFD9FF1200000EE66ECA
:101F0000E66A07EC11F042E91200D9CFE6FFE1CF13
:101F1000D9FF81E943E8A4EC11F0C450016EC3502D
:101F2000026E1FEC11F0F350036ED950010FE66EF4
:101F3000DACFE6FF2F0EE66E030EE66E16EC09F022
:0C1F400044E99E9C44E9E7CFD9FF120061
:041F4C00D9CFE6FF04
:101F5000DACFE6FFE1CFD9FFE2CFDAFF85E901343E
:101F600015E200EBE9FF01EBEAFFEECFF3FFEDCF67
:101F7000F4FFEE2A000EEF22F3CFE9FFF4CFEAFFE1
:101F800002EBEFFFEF50F36EF46A0DD0FE0E005C33
:101F900005E102EBE6FF89EC11F004D002EBE6FF6D
:101FA00003EC00F041E941E9E5CFDAFFE7CFD9FFE3
:021FB00012001D
:0E1FB200D9CFE6FFDACFE6FFE1CFD9FFE2CFCD
:101FC000DAFF85E944E8D9CFE6FFDACFE6FFE5524C
:101FD000E550066EE750056E05EBE6FF06EBE6FF03
:101FE00000EBE6FF01EBE6FF02EBE6FF48C0E6FF91
:101FF00049C0E6FF2FEC00F047E9F350076EF450BC
:10200000086E07EBF3FF08EBF4FF45E9E5CFDAFFD5
:06201000E7CFD9FF12002A
:0A201600D9CFE6FFDACFE6FFE1CFF5
:10202000D9FFE2CFDAFF85E9C26AC06A01407F0BBF
:102030003C0BC26E0138F00B300B00013B6F0F0EF2
:1020400000143B11C16E0250040DF350380B3C6F6D
:1020500002380F0B070B3B6F800E02143B113C1133
:10206000C06E01AE03D09E9C9D8CF28CC28041E973
:0A207000E5CFDAFFE7CFD9FF120039
:06207A00D9CFE6FFE1CF23
:10208000D9FF89E91E0E041802E1055020E01F0E59
:1020900004181DE105501BE100500224E96E0150B7
:1020A0000320EA6EEF6A00EBE6FF01EBE6FF02EBCE
:1020B000E6FF03EBE6FF04EBE6FF05EBE6FF090EA8
:1020C000E66E1C0EE66EE66AD9EC0FF049E941E9CE
:0620D000E7CFD9FF12006A
:0A20D600D9CFE6FFE1CFD9FF89E979
:1020E00042E880EB09F081EB0AF009EBE9FF0AEB2B
:1020F000EAFFEECFE6FFEECFE6FF02EBE6FF03EBF3
:10210000E6FF04EBE6FF05EBE6FF280EE66E1C0E8D
:10211000E66EE66AD9EC0FF049E943E9E7CFD9FF6B
:022120001200AB
:0E212200D9CFE6FFDACFE6FFE1CFD9FFE2CF5B
:10213000DAFF83E97E0E0014CD6E00AC02D0CD8EA6
:1021400001D0CD9ECF6ACE6A9E9000AE02D09D8017
:1021500001D09D90CD8041E9E5CFDAFFE7CFD9FFEF
:0221600012006B
:0E216200D9CFE6FFDACFE6FFE1CFD9FFE2CF1B
:10217000DAFF82E941E8F20E00014A17ABAC03D066
:102180004A91ABB04A81ABB44A85ABB24A87AE50F4
:10219000026E025042E9E5CFDAFFE7CFD9FF120025
:1021A0000B0EE66E840EE66EAB0EE66E0BEC10F0D8
:1021B00043E9870EE66E4FEC11F041E91200D9CFEA
:1021C000E6FFE1CFD9FF83E90AEC00F041E9E7CF70
:0821D000D9FF120007EF00F037
:0821D800D9CFE6FFDACFE6FFE4
:1021E000E1CFD9FFE2CFDAFF83E97F0E0014D56E8D
:1021F000D76AD66AF29400AE02D0F28A01D0F29A7F
:0E220000D58E41E9E5CFDAFFE7CFD9FF120016
:02220E00D9CF26
:10221000E6FFDACFE6FFE1CFD9FFE2CFDAFF84E9CC
:1022200042E880EB04F081EB05F005EBCFFF04EB17
:0E223000CEFF43E9E5CFDAFFE7CFD9FF12007A
:02223E00D9CFF6
:10224000E6FFDACFE6FFE1CFD9FFE2CFDAFF82E99E
:1022500042E8CE50026ECF50036E02EBF3FF03EB69
:0E226000F4FF43E9E5CFDAFFE7CFD9FF120024
:02226E00D9CFC6
:10227000E6FFDACFE6FFE1CFD9FFE2CFDAFF84E96C
:1022800042E880EB04F081EB05F005EBD7FF04EBAF
:0E229000D6FF43E9E5CFDAFFE7CFD9FF120012
:02229E00D9CF96
:1022A000E6FFDACFE6FFE1CFD9FFE2CFDAFF83E93D
:1022B000C30EC21400013B6F00407F0B3C0B3B116F
:0E22C000C26E41E9E5CFDAFFE7CFD9FF120089
:0222CE00F36AB1
:1022D000F46AFF0EE124E96EFF0EE220EA6EED667D
:1022E00007D02F0EEF6404D03A0EEF6001D0F32A2E
:0222F0001200DA
:0E22F200000EF36E00EE00F0040E01D8120094
:10230000EA6002D0EE6AFCD7F350E9601200EE6A90
:02231000FCD7F8
:0E231200FF0EE350ACBA04D0AF6AAB8EAC8ABB
:0E232000949CACA2FED7AD6EF36EF46A120070
:02232E0013EEAC
:1023300000F023EE00F0F86ADCEC0EF0B9EC11F0DE
:0823400043EC0AF0FBD7120088
:08234800C4CF3DF03DC03EF0A2
:1023500000013D6BC3503D11F36E3EC0F4FF12000F
:10236000303132333435363738396162636465660B
:01237000006C
:02237200120057
:02237400FEFF6A
:017FF800E0A8
:017FFA00C5C1
:00000001FF
