:020000040000FA
:0600000046EF0BF01200B8
:020006000000F8
:0600080074EF06F0120087
:02000E00C2909E
:040010009D9C1200A1
:04001400C282120092
:06001800D6EF06F0120015
:02001E00D9CF38
:10002000E6FFE1CFD9FF82E941E9E7CFD9FF12002E
:10003000D9CFE6FFE1CFD9FF84E941E9E7CFD9FF86
:100040001200D9CFE6FFE1CFD9FF82E941E9E7CF3E
:10005000D9FF1200D9CFE6FFE1CFD9FF84E94FC025
:10006000E9FF50C0EAFF1D0EE926000EEA22EF6A02
:100070004FC0E9FF50C0EAFF1D0EEB50D88002547C
:1000800032E24FC0E9FF50C0EAFF1D0EEB500024E2
:10009000E96E000E0120EA6EEF50E66E4FC0E9FFF8
:1000A00050C0EAFF110EE926000EEA22E9CF49F01E
:1000B000EACF4AF04FC0E9FF50C0EAFF1D0EEB50F7
:1000C0000001EA6A4925E96E4A51EA22E552E75001
:1000D000EF6E4FC0E9FF50C0EAFF1D0EE926000E8B
:1000E000EA22EF2AC5D74FC0E9FF50C0EAFF1D0E34
:1000F000E926000EEA2202EBEFFF4FC0E9FF50C0F5
:10010000EAFF1E0EE926000EEA22010EEF6E4FC036
:10011000E9FF50C0EAFF110EEB50C96EC68841E9F5
:10012000E7CFD9FF1200D9CFE6FFE1CFD9FF82E9AF
:100130004FC0E9FF50C0EAFF0D0EE926000EEA228B
:10014000010EEF6E4FC0E9FF50C0EAFF0C0EE9262A
:10015000000EEA22EF6A005035E0C7AA1DD04FC05A
:10016000E9FF50C0EAFF0E0EE926000EEA22050E56
:10017000EF6E4FC0E9FF50C0EAFF100EE926000EF7
:10018000EA22EF2A4FC0E9FF50C0EAFF0F0EE9262E
:10019000000EEA22050E1FD0C7A40AD04FC0E9FF07
:1001A00050C0EAFF0E0EE926000EEA22080E13D018
:1001B0004FC0E9FF50C0EAFF0E0EE926000EEA220A
:1001C000070E09D04FC0E9FF50C0EAFF0E0EE92626
:1001D000000EEA22060EEF6E41E9E7CFD9FF1200CA
:1001E000D9CFE6FFE1CFD9FF81E95CE8026A036A73
:1001F000046A056A066AC6AC20D0C69C4FC0E9FFF7
:1002000050C0EAFF0E0EE926000EEA22050EEF6E40
:10021000010E066E4FC0E9FF50C0EAFF100EE9263E
:10022000000EEA22EF2A4FC0E9FF50C0EAFF0F0E8E
:10023000E926000EEA22040EEF6EC7A004D0C950D2
:10024000016E010E026E065001E05FD14FC0E9FF62
:1002500050C0EAFF0E0EEB50070A01E1B4D00F0ABE
:1002600001E17FD00E0A16E0030A01E04ED1C7A6D5
:100270004CD102EBE6FF57DF41E94FC0E9FF50C028
:10028000EAFF0E0EEB50080801E03FD1026A010EB2
:10029000056E3BD1C7A822D04FC0E9FF50C0EAFF8E
:1002A0000D0EE926000EEA22EF2A025001E123D1C9
:1002B000C7AAD1D04FC0E9FF50C0EAFF100EE9260F
:1002C000000EEA22EF2A4FC0E9FF50C0EAFF0F0EEE
:1002D000E926000EEA22060EEF6E0DD1025001E172
:1002E00014D14FC0E9FF50C0EAFF0D0EE926000E01
:1002F000EA22EF2AC7BA18D0C7B40AD04FC0E9FF24
:1003000050C0EAFF0E0EE926000EEA22070EFCD0CE
:100310004FC0E9FF50C0EAFF0E0EE926000EEA22A8
:10032000080EEF6E010ED1D04FC0E9FF50C0EAFFBA
:10033000100EE926000EEA22EF2A4FC0E9FF50C056
:10034000EAFF0E0EE926000EEA22050EEF6E4FC000
:10035000E9FF50C0EAFF0F0EE926000EEA22060E62
:10036000D3D04FC0E9FF50C0EAFF1E0EEB50000192
:10037000496F1D0EEB50495D01E3BDD04FC0E9FF51
:1003800050C0EAFF110EE926000EEA22E9CF49F03B
:10039000EACF4AF04FC0E9FF50C0EAFF1E0EEB5013
:1003A000EA6A4925E96E4A51EA22EF50C96E4FC008
:1003B000E9FF50C0EAFF1E0EE926000EEA22EF2AEE
:1003C000010E036EA2D0C7A849D04FC0E9FF50C0AC
:1003D000EAFF0D0EE926000EEA22EF2A02503BE06A
:1003E000C7AA1CD04FC0E9FF50C0EAFF4FC049F078
:1003F00050C04AF00C0EEB500001EA6A4925E96E44
:100400004A51EA2201EBEFFF4FC0E9FF50C0EAFF7B
:100410000C0EE926000EEA22EF2A1DD04FC0E9FF9C
:1004200050C0EAFF100EE926000EEA22EF2A4FC064
:10043000E9FF50C0EAFF0F0EE926000EEA22060E81
:10044000EF6E4FC0E9FF50C0EAFF0E0EE926000E26
:10045000EA22050E4FD0010E046E4DD0025055E039
:100460004FC0E9FF50C0EAFF0D0EE926000EEA2258
:10047000EF2AC7AA1CD04FC0E9FF50C0EAFF4FC007
:1004800049F050C04AF00C0EEB500001EA6A4925D1
:10049000E96E4A51EA2201EBEFFF4FC0E9FF50C07D
:1004A000EAFF0C0EE926000EEA22EF2A2ED0C7A49E
:1004B0000FD04FC0E9FF50C0EAFF0E0EE926000E34
:1004C000EA22080EEF6E010E046E056E026A1DD060
:1004D0004FC0E9FF50C0EAFF100EE926000EEA22E5
:1004E000EF2A4FC0E9FF50C0EAFF0F0EE926000EC9
:1004F000EA22060EEF6E4FC0E9FF50C0EAFF0E0E73
:10050000E926000EEA22050EEF6E025002E10350CA
:1005100002E0C6A8C6884FC0E9FF50C0EAFF0C0E33
:10052000EB500A081FE204501DE14FC0E9FF50C024
:10053000EAFF0E0EE926000EEA22050EEF6E4FC00E
:10054000E9FF50C0EAFF100EE926000EEA22EF2A6A
:100550004FC0E9FF50C0EAFF0F0EE926000EEA2265
:10056000070EEF6E045031E04FC0E9FF50C0EAFFC4
:100570000D0EEB50E66E4FC049F050C04AF00C0E25
:10058000EB500001EA6A4925E96E4A51EA22E55238
:10059000E750EF6E4FC0E9FF50C0EAFF4FC049F08F
:1005A00050C04AF04FC0E6FF50C0E6FF280EE66E8E
:1005B0000C0EEB50010FE66E03EC05F044E94FC062
:1005C000E9FF50C0EAFF0C0E29D04FC0E9FF50C030
:1005D000EAFF100EEB500001496F010E495D22E366
:1005E0004FC0E9FF50C0EAFF100EEB50076E0F0E30
:1005F000EB50086E0D0EEB50096ED950070FE66EEA
:10060000DACFE6FF290EE66E030EE66E03EC05F088
:1006100044E94FC0E9FF50C0EAFF100EE926000E82
:10062000EA22EF6A05504EE0176A186A4FC0E9FFE8
:1006300050C0EAFFEF50AA0844E102EC06F0F3CF05
:1006400049F0F4CF4AF00001F350F41015E0D9500E
:100650000A0FE66EDACFE6FFD950160FE66EDACF54
:10066000E6FF0C0EE66E7AEC05F045E91B6E1C6A9F
:10067000E8AE1ED01C681CD0176A186A0C0ED89001
:1006800018BE03D0175C000E185812E2D9500A0F9A
:10069000E66EDACFE6FFFE0EE3501724E96E41E97D
:1006A000E5501820EA6EEF68172A000E1822E6D7E8
:1006B000D9500A0FE66EDACFE6FF0C0EE66ECADC02
:1006C00043E9056A5DE9E7CFD9FF1200D9CFE6FF1C
:1006D000E1CFD9FF83E900EB4FF001EB50F04FC0C1
:1006E000E9FF50C0EAFF0C0EE926000EEA22EF6A8D
:1006F0004FC0E9FF50C0EAFF0D0EE926000EEA22C6
:10070000EF6A4FC0E9FF50C0EAFF0E0EE926000E67
:10071000EA22050EEF6E4FC0E9FF50C0EAFF100E4F
:10072000E926000EEA22EF6A41E9E7CFD9FF12007D
:10073000D9CFE6FFE1CFD9FF82E99486948800EB18
:10074000C8FFC76AC66AC56A0E0EC612C78EC580C4
:0A075000C68A41E9E7CFD9FF120085
:06075A00D9CFE6FFE1CF5C
:10076000D9FF83E941E800EBE9FF01EBEAFF3C0E2A
:10077000E926000EEA22EF6A00EBE9FF01EBEAFF4F
:100780003D0EE926000EEA22EF6A036A040E035CBE
:100790000FE200EBE9FF01EBEAFF03500F0DE95018
:1007A000F324E96EEA50F420EA6EEF6A032AEED7EA
:1007B00042E9E7CFD9FF1200D9CFE6FFE1CFD9FF59
:1007C00087E945E803500A6E0B6A04EBE9FF05EB85
:1007D000EAFF3C0EE926000EEA22EF50076E04EB1A
:1007E000E9FF05EBEAFF07500F0D0001F350E92484
:1007F000086EF450EA20096E08EBE9FF09EBEAFF06
:10080000EF5002E0FF0E48D008EBE9FF09EBEAFFEA
:10081000EE5203EBEFFF08EBE9FF09EBEAFF020EF4
:10082000E926000EEA2202EBEFFF0AEBE6FF0BEBF4
:10083000E6FF00EBE6FF01EBE6FF08EBE9FF09EB63
:10084000EAFF030EE926000EEA22E9CF49F0EACFDB
:100850004AF0E9CFE6FFEACFE6FF0DEC0AF046E901
:1008600004EBE9FF05EBEAFF3C0EE926000EEA2265
:10087000EF28030BE66E04EBE9FF05EBEAFF3C0E05
:10088000E926000EEA22E552E750EF6E08EBE9FF99
:1008900009EBEAFF010EEF6E46E9E7CFD9FF120040
:1008A000D9CFE6FFE1CFD9FF88E945E805EBE9FFBD
:1008B00006EBEAFF3D0EE926000EEA22EF50086E35
:1008C00005EBE9FF06EBEAFF08500F0D0001F350BE
:1008D000E924096EF450EA200A6E09EBE9FF0AEBFD
:1008E000EAFFEF045BE109EBE9FF0AEBEAFFEE52F6
:1008F000EF50045C02E2FD0E52D009EBE9FF0AEB77
:10090000EAFFEE52EF500B6E0C6A0BEBE6FF0CEBBE
:10091000E6FF09EBE9FF0AEBEAFF030EE926000E0A
:10092000EA22E9CF49F0EACF4AF0E9CFE6FFEACF81
:10093000E6FF00EBE6FF01EBE6FF0DEC0AF046E90F
:1009400005EBE9FF06EBEAFF3D0EE926000EEA2281
:10095000EF28030BE66E05EBE9FF06EBEAFF3D0E21
:10096000E926000EEA22E552E750EF6E09EBE9FFB7
:100970000AEBEAFF020EE926000EEA22EF50E66ECD
:1009800002EBE9FF03EBEAFFE552E750EF6E09EBFC
:10099000E9FF0AEBEAFFEF6A0B5001D0FC0E46E9D3
:1009A000E7CFD9FF1200D9CFE6FFE1CFD9FF85E924
:1009B00000EBE6FF01EBE6FF02EBE6FF03EBE6FFF1
:1009C000000EE66E010EE66EF7DE46E941E9E7CF7E
:1009D000D9FF1200D9CFE6FFE1CFD9FF86E900EBBE
:1009E000E6FF01EBE6FF02EBE6FF03EBE6FF04EBBD
:1009F000E6FF000EE66E010EE66E52DF47E941E9C2
:100A0000E7CFD9FF1200D9CFE6FFE1CFD9FF85E9C3
:100A100000EBE6FF01EBE6FF02EBE6FF03EBE6FF90
:100A2000BE0EE66E000EE66EC7DE46E941E9E7CF90
:100A3000D9FF1200D9CFE6FFE1CFD9FF86E900EB5D
:100A4000E6FF01EBE6FF02EBE6FF03EBE6FF04EB5C
:100A5000E6FFBE0EE66E000EE66E22DF47E941E9D4
:100A6000E7CFD9FF1200D9CFE6FFE1CFD9FF85E963
:100A700000EBE6FF01EBE6FF02EBE6FF03EBE6FF30
:100A8000800EE66E000EE66E97DE46E941E9E7CF9E
:100A9000D9FF1200D9CFE6FFE1CFD9FF86E900EBFD
:100AA000E6FF01EBE6FF02EBE6FF03EBE6FF04EBFC
:100AB000E6FF800EE66E000EE66EF2DE47E941E9E3
:100AC000E7CFD9FF1200D9CFE6FFE1CFD9FF85E903
:100AD00000EBE6FF01EBE6FF02EBE6FF03EBE6FFD0
:100AE000000EE66E000EE66E67DE46E941E9E7CFEE
:100AF000D9FF1200D9CFE6FFE1CFD9FF86E900EB9D
:100B0000E6FF01EBE6FF02EBE6FF03EBE6FF04EB9B
:100B1000E6FF000EE66E000EE66EC2DE47E941E932
:100B2000E7CFD9FF120000013E6B000EE66E010E0A
:100B3000E66E13DE42E9BE0EE66E000EE66E0DDED8
:100B400042E9800EE66E000EE66E07DE42E9000E18
:100B5000E66E000EE66E01DE42E91200D38E03005F
:100B60001200D9CFE6FFE1CFD9FF83E900EBE9FF1F
:100B700001EBEAFFE9CF49F0EACF4AF000EBE9FFE9
:100B800001EBEAFF3D0EE926000EEA22EF500F0DC1
:100B900000014951F324E96E4A51F420EA6EEF5006
:100BA00041E9E7CFD9FF120000013E5101E11200F7
:100BB00055EC06F0F3CF49F0F4CF4AF00001F350C2
:100BC000F41001E0120035EC06F0F3CF49F0F4CF59
:100BD0004AF00001F350F41001E11200BE0EE66E7F
:100BE000000EE66EBEDF42E9000901E01200000ED1
:100BF000E66E010EE66EB5DF42E9000901E0120083
:100C0000AEEF05F0000EE66E000EE66EAADF42E9DA
:100C1000000902E0010E01D0000EF36EF46A12002A
:100C200061EC06F0F3CF49F0F4CF4AF0F350F41042
:100C300001E112000001010E3E6FBE0EE66E000ED5
:100C4000E66E8FDF42E9000908E1000EE66E010E54
:100C5000E66E87DF42E90009F0E000013E6B12001A
:100C6000D08EF28EF28C9E8C1200F250800B800A95
:100C700001E0010E0001496F4A6B800B01E04A69F7
:100C800049C0F3FF4AC0F4FF1200F250400B400A83
:100C900001E0010E0001496F4A6B800B01E04A69D7
:100CA00049C0F3FF4AC0F4FF1200F2BC04D0DDDFFC
:100CB000F350F41002E0000E01D0010EF36EF46A5E
:100CC0001200F3DFF3CF49F0F4CF4AF00001F35004
:100CD000F41006E1CADFF350F41002E1010E01D076
:100CE000000EF36EF46A1200DACFE4FFE2CFDAFF0F
:100CF000E9CFE4FFEACFE4FFD9CFE4FFDACFE4FFA6
:100D0000FCC0E4FFFDC0E4FFFEC0E4FFFFC0E4FF61
:100D1000F6CFE4FFF7CFE4FFF5CFE4FFF3CFE4FF36
:100D2000F4CFE4FFFACFE4FF00EE49F0040EE8044C
:100D300003E3EECFE4FFFBD7E6529EA603D09E96D8
:100D4000F0EC00F0F2A403D0F294A3EC09F09EAC16
:100D500003D09E9CBCEC09F0D4EC05F0E55200EE0B
:100D60004CF0040EE80403E3E5CFEDFFFBD7E5CF3D
:100D7000FAFFE5CFF4FFE5CFF3FFE5CFF5FFE5CFD1
:100D8000F7FFE5CFF6FFE5CFFFF0E5CFFEF0E5CFCB
:100D9000FDF0E5CFFCF0E5CFDAFFE5CFD9FFE5CFF9
:100DA000EAFFE5CFE9FFE5CFDAFF1100D8CFE4FF96
:100DB000E0CFE4FFE46EDACFE4FFE2CFDAFFE9CF81
:100DC000E4FFEACFE4FFD9CFE4FFDACFE4FFFCC0D1
:100DD000E4FFFDC0E4FFFEC0E4FFFFC0E4FFF6CF88
:100DE000E4FFF7CFE4FFF5CFE4FFF3CFE4FFF4CF68
:100DF000E4FFFACFE4FF00EE49F0040EE80403E359
:100E0000EECFE4FFFBD7E6529EA003D09E90B5EC58
:100E100009F09EAA03D09E9A1FEC08F0E55200EE5E
:100E20004CF0040EE80403E3E5CFEDFFFBD7E5CF7C
:100E3000FAFFE5CFF4FFE5CFF3FFE5CFF5FFE5CF10
:100E4000F7FFE5CFF6FFE5CFFFF0E5CFFEF0E5CF0A
:100E5000FDF0E5CFFCF0E5CFDAFFE5CFD9FFE5CF38
:100E6000EAFFE5CFE9FFE5CFDAFFE550E5CFE0FFA8
:060E7000E5CFD8FF1000E1
:0A0E7600D9CFE6FFE1CFD9FF81E9F3
:100E80007FE855E8386A396A3A6A3B6A3C6A3D6AE3
:100E90003E6A3F6A010E406E416A446E456A4D6A81
:100EA0004E6A4F6A506A516A526A536A546A9B8CFE
:100EB000D950460FE66EDACFE6FF74EC08F042E94F
:100EC000170EE66EE66A6C0EE66E26EC09F043E954
:100ED000D950050FE66EDACFE6FF66EC03F042E983
:100EE00093EC05F09E0EE66E98EC03F041E9920E4D
:100EF000E66E93EC0AF041E9350EE66E38EC0AF046
:100F000041E9806A896A0F0E926E77EC0AF030EC44
:100F100006F09F909F9A9F869D869F8C936A8A6A0F
:100F200010EC06F0D950250FE66EDACFE6FFD95067
:100F3000030FE66EDACFE6FF0C0EE66E1AEC05F054
:100F400045E9026E023403E3FC0E025CE9D703506C
:100F50002A0A72E0030A67E0010A3EE0220A21E061
:100F6000250ADEE1D1EB2FF0AA0E306ED950250F05
:100F7000E66EDACFE6FF03EBE6FF0C0EE66E63ECFF
:100F800005F044E9640ED89041BE03D0405C000EE9
:100F9000415804E2402A000E412203D0010E406E67
:100FA000416AD950250FE66EDACFE6FF02EB49F031
:100FB00000014A6B49BF4A6949C0E6FF4AC0E6FFE3
:100FC0000350E66EE66AD950420FE66EDACFE6FFCE
:100FD00038EC0BF048E9A4D7AF0E255C24E129508A
:100FE0003C6E3D6A26EB8AFF00013E503C5C496F37
:100FF0003F503D584A6F010E491911E14A510FE126
:10100000630ED8903FBE03D03E5C000E3F5804E212
:101010003E2A000E3F2207D03E6A3F6A04D0BCEB56
:101020003EF0BDEB3FF0316A0250315C02E2312A02
:0E103000FBD7A5EB04F074D70450AA0A71D7C1
:02103E009EAA68
:1010400044D058EC0AF0E66E4DC0E9FF4EC0EAFF0E
:101050004DC049F04EC04AF0040EEB500001EA6A60
:101060004925E96E4A51EA22E552E750EF6E4DC03C
:10107000E9FF4EC0EAFF040EE926000EEA22EF2A3D
:101080004DC0E9FF4EC0EAFF040EEB5004081DE11D
:101090004DC0E9FF4EC0EAFF4DC049F04EC04AF0D6
:1010A0004DC0E6FF4EC0E6FF1F0EE66E040EEB508D
:1010B000E66ED3EC04F044E94DC0E9FF4EC0EAFF10
:1010C000040EE926000EEA22EF6A000151A70BD0B8
:1010D000AB98AB88000EE66EE66A1E0EE66EE66A18
:1010E000D3EC04F044E91200D9CFE6FFE1CFD9FFF9
:1010F00083E900EB4DF001EB4EF04DC0E9FF4EC02F
:10110000EAFF040EE926000EEA22EF6A41E9E7CF82
:04111000D9FF1200F1
:0C111400060EF66E000EF76E000EF86E70
:1011200000010900F550446F0900F550456F03E1D7
:10113000446701D03DD00900F5503F6F0900F550DC
:10114000406F0900F550416F09000900F550E96E44
:101150000900F550EA6E090009000900F550426FD8
:101160000900F550436F09000900F6CF46F0F7CFAC
:1011700047F0F8CF48F03FC0F6FF40C0F7FF41C04E
:10118000F8FF0001425302E1435307E00900F55024
:10119000EE6E4207F8E24307F9D746C0F6FF47C0B4
:1011A000F7FF48C0F8FF00014407000E455BBFD7BA
:0211B00012002B
:0E11B200D9CFE6FFE1CFD9FF83E900EBE9FFDB
:1011C00001EBEAFFEE6AED6A41E9E7CFD9FF1200D1
:1011D000D9CFE6FFE1CFD9FF89E941E806EBE9FF86
:1011E00007EBEAFFEE2A000EEF220A0EE66EE66A31
:1011F00006EBE9FF07EBEAFFEECFE6FFEECFE6FFF7
:1012000076EC09F0E552E5CF4AF0E7CF49F000016E
:10121000090E491917E14A5115E106EBE9FF07EB01
:10122000EAFFE9CF49F0EACF4AF0E9CFE6FFEACF9B
:10123000E6FF140EE66E020EE66E63EC05F044E97E
:0C124000096E093442E9E7CFD9FF120023
:04124C00D9CFE6FF11
:10125000DACFE6FFE1CFD9FFE2CFDAFF85E9AC6A6A
:10126000AB6A02B0AC8802A202D0AC8CAB8C02B4E8
:10127000AC8E02A602D0AB8801D0AB8A02B8AC8497
:101280009E9802BAAB8602AC02D09D8A01D09D9A8C
:101290009E9A02AE02D09D8801D09D9800EBAFFFD0
:1012A000000101EB49F04A6B49C0B0FFAC8AAB8E3C
:1012B000949C948EAC50100B04E0AC50800B01E178
:0E12C000948C41E9E5CFDAFFE7CFD9FF1200A9
:0212CE0043E8F3
:1012D000D9CFE6FFDACFE6FFE1CFD9FFE2CFDAFFE1
:1012E00089E9066A1200F3DF068003D0F0DF01D03F
:1012F0000682056A046A100EE76ED890023603363D
:10130000043605360050045C0150055805E30050D2
:10131000045E0150055A022AE72EF0D706B21200E9
:1013200006B006D084EB00F085EB01F006A004D0F7
:1013300082EB00F083EB01F0E552E5CFDAFFE7CF77
:06134000D9FF45E912008F
:0A134600D9CFE6FFE1CFD9FF81E91E
:1013500046E8000EE66EE66AF8EC0AF042E90AECAE
:1013600000F047E9E7CFD9FF1200000EE66EE66A0B
:10137000C8EC0AF042E91200D9CFE6FFE1CFD9FF6D
:1013800081E943E8C450016EC350026EE0EC0AF0FC
:10139000F350036ED950010FE66EDACFE6FF2F0E41
:1013A000E66E030EE66E03EC05F044E99E9C44E90C
:0613B000E7CFD9FF120097
:0A13B600D9CFE6FFDACFE6FFE1CF62
:1013C000D9FFE2CFDAFF85E9C26AC06A01407F0B2C
:1013D0003C0BC26E0138F00B300B0001496F0F0E51
:1013E00000144911C16E0250040DF350380B4A6FBE
:1013F00002380F0B070B496F800E021449114A1176
:10140000C06E01AE03D09E9C9D8CF28CC28041E9DF
:0A141000E5CFDAFFE7CFD9FF1200A5
:06141A00D9CFE6FFDACF96
:10142000E6FFFA0EE3CFD9FFFB0EE3CFDAFFFC0EA7
:10143000E3CFE9FFFD0EE3CFEAFFE9CFF3FFEACF09
:10144000F4FFF80EE35003E1F90EE35008E0F80E64
:10145000E30602E2F90EE306DECFEEFFF2D7FF0E5F
:10146000E3CFDAFFE552FF0EE3CFD9FFE5521200DA
:10147000D9CFE6FFDACFE6FFE1CFD9FFE2CFDAFF3F
:1014800083E97E0E0014CD6E00AC02D0CD8E01D06B
:10149000CD9ECF6ACE6A9E9000AE02D09D8001D0D4
:1014A0009D90CD8041E9E5CFDAFFE7CFD9FF12006B
:1014B000D9CFE6FFDACFE6FFE1CFD9FFE2CFDAFFFF
:1014C00082E941E8F20E00015117ABAC03D0519113
:1014D000ABB05181ABB45185ABB25187AE50026E07
:0E14E000025042E9E5CFDAFFE7CFD9FF120054
:0214EE000B0EE3
:1014F000E66E840EE66EAB0EE66EDBEC09F043E9B9
:10150000870EE66E10EC0BF041E91200D9CFE6FF32
:10151000E1CFD9FF83E90AEC00F041E9E7CFD9FF39
:06152000120007EF00F0CD
:0A152600D9CFE6FFDACFE6FFE1CFF0
:10153000D9FFE2CFDAFF83E97F0E0014D56ED76AB8
:10154000D66AF29400AE02D0F28A01D0F29AD58E19
:0C15500041E9E5CFDAFFE7CFD9FF120038
:04155C00D9CFE6FFFE
:10156000E1CFD9FF89E91E0E041802E105500CE015
:101570001F0E041809E1055007E100500224E96E2E
:1015800001500320EA6EEF6A41E9E7CFD9FF12006C
:10159000D9CFE6FFDACFE6FFE1CFD9FFE2CFDAFF1E
:1015A00084E942E880EB04F081EB05F005EBCFFF26
:1015B00004EBCEFF43E9E5CFDAFFE7CFD9FF120016
:1015C000D9CFE6FFDACFE6FFE1CFD9FFE2CFDAFFEE
:1015D00082E942E8CE50026ECF50036E02EBF3FF79
:1015E00003EBF4FF43E9E5CFDAFFE7CFD9FF1200C1
:1015F000D9CFE6FFDACFE6FFE1CFD9FFE2CFDAFFBE
:1016000084E942E880EB04F081EB05F005EBD7FFBD
:1016100004EBD6FF43E9E5CFDAFFE7CFD9FF1200AD
:10162000D9CFE6FFDACFE6FFE1CFD9FFE2CFDAFF8D
:1016300083E9C30EC2140001496F00407F0B3C0BCD
:101640004911C26E41E9E5CFDAFFE7CFD9FF1200B9
:10165000000EF36E00EE00F0040E01D81200EA60F6
:1016600002D0EE6AFCD7F350E9601200EE6AFCD7B4
:10167000D9CFE6FFE1CFD9FF89E942E880EB09F055
:0C16800081EB0AF043E9E7CFD9FF12002C
:04168C0013EE00F069
:1016900023EE00F0F86A8AEC08F053EC0BF03BEC18
:0616A00007F0FBD7120069
:0216A600120030
:017FF800E0A8
:017FFA00C5C1
:00000001FF
