:020000040000FA
:0600000021EF11F01200D7
:020006001200E6
:06000800A0EF0BF0120056
:02000E00C2909E
:040010009D9C1200A1
:04001400C282120092
:0600180002EF0CF01200E3
:02001E000100DF
:0C002000882200005400000002000000D4
:04002C0090DB86E9F6
:100030000150010600090CE002EBE6FF03EBE6FFCE
:1000400000EBE6FF69DBF4E14A1DF2E1010E01D0AD
:10005000000E41E9E5CFDAFFE7CFD9FF120077DBE9
:1000600089E97BE80A6A0B6A02EBF6FF03EBF7FF0C
:1000700004EBF8FF0800F550096E095001E12DD39B
:10008000250E095C01E01BD30C6A0D6A0E6A0F6A2B
:10009000106A2DDB2D0E095C0CE02B0E095C09E0CB
:1000A000200E095C06E0230E095C03E0300E095CBB
:1000B00015E10950300A10E0130A0CE0030A08E0C9
:1000C0000B0A04E0060AE5E10C80E3D70C82E1D7D5
:1000D0000C84DFD70C86DDD70C88DBD72A0E095CB1
:1000E00013E1A5DB0DE30C801CEB49F01DEB4AF09E
:1000F0000001496D4A1F000E4A2349510D6E02D07E
:100100009CEB0DF0F4DA07D0126A3FDB02E06BDB08
:10011000FCD792EB0DF00CB00C982E0E095C15E19B
:10012000E6DA2A0E095C08E182DB04E29CEB0EF0C1
:10013000010E0F6EDCDA09D0126A27DB02E053DB16
:10014000FCD792EB0EF0010E0F6E680E095C07E112
:10015000CEDA680E095C1DE1030E106E19D0740E24
:10016000095C16E07A0E095C13E0480E095C06E0B3
:10017000540E095C03E05A0E095C02E1020E07D03E
:100180006C0E095C03E06A0E095C03E1010E106E5F
:10019000AEDA09506E0A01E16ED21E0A01E128D1E1
:1001A000200A01E125D13F0A01E1FDD01A0A01E14F
:1001B000FAD00D0A01E1F7D0200A01E1F4D03A0AA1
:1001C00001E1F1D0200A01E1EED0260A01E1EAD0F6
:1001D0000D0A01E1E7D01A0A01E19ED0200A3BE0B6
:1001E000300A1AE0460A0EE0250A01E072D2D95020
:1001F000020FE96E000EDA20EA6E010EEE5E000ECE
:10020000EE5AEE5A0FDB250EE66E86DA03E14A1D42
:1002100001E159D20A2A5BD2116A0D50010803E2AA
:100220000D04116EF5DA115007E0010E0C1404E113
:100230006DDA01E048D2116AD3DAEF50096ECBDAF9
:1002400003E14A1D01E13FD20A2A000E0B225EDAC9
:1002500001E13FD238D2020E105C08E1030E4EDA03
:10026000EE50176EEE50186EEF5007D0E7DA4B6B7A
:100270004951176E4A51186E4B51196E17EBE6FF34
:1002800018EBE6FF19EBE6FF4AEC0EF043E9FCC081
:1002900049F0FDC04AF0FEC04BF0000149511C6E10
:1002A0004A511D6E0F5006E01C500E5C03E20E50CA
:1002B0001C6E1D6A1C500D5C02E29CEB0DF050DAC6
:1002C00005E00D500E5C02E28EEB0DF00CB004D098
:1002D0001DDA01E0F8D1116A126A17EBF6FF18EB8C
:1002E000F7FF19EBF8FF0800F550096E095010E010
:1002F0000D50125C0DE26FDA03E14A1D01E1E3D11A
:100300000A2A000E0B22122AD950170F55DAEBD702
:10031000FDD901E1DED1D7D163DAEE501A6EED508E
:100320001B6E1AEBE6FF1BEBE6FF3CEC0EF042E91E
:10033000F3501C6EF4501D6E0F5006E01C500E5C06
:1003400003E20E501C6E1D6A1C500D5C02E29CEB19
:100350000DF006DA05E00D500E5C02E28EEB0DF0BA
:100360000CB004D0D3D901E0AED1116A126A1AEBF5
:10037000E9FF1BEBEAFFEF50096E09500FE00D504B
:10038000125C0CE228DA03E14A1D01E19CD10A2A41
:10039000000E0B22122A1A2A1B22E9D7B7D901E133
:1003A00098D191D10C8E10040AE1040EA7D9EE5019
:1003B000136EEE50146EEE50156EEF5032D0030EE9
:1003C000105C16E10CAE0CD00BDAEFCF49F0000157
:1003D0004A6B4B6B4C6B49AF23D04A694B691FD0BA
:1003E000FFD9EFCF49F000014951136E146A20D0B4
:1003F000020E105C0CE10CAE06D0030E7FD9B6D90C
:100400004BAF0ED00CD0030E79D9B0D909D00CAEB9
:100410000AD014DA4B6B4C6B4AAF02D04B694C6973
:10042000BCD9166E07D00ADA4951136E4A51146EC0
:10043000156A166A0F5002E1010E0E6E1E6A1F6ADF
:10044000D950400FE66E000EDA20E66EE552E55018
:10045000436EE750426E416A116A0A0E106E0950EF
:10046000780A12E0200A10E0280A0CE0200A0AE0CC
:100470003F0A06E00D0A02E0200A08E1020E05D05C
:10048000080E03D0080E0926100E106E0CBE02D006
:100490000C920C94800E0C1417E0163415E3E668E9
:1004A000E668E668E66842D9F5EC0CF0E552E5CF7F
:1004B0004CF0E5CF4BF0E5CF4AF0E7CF49F0000133
:1004C0006CD9166E2D0E07D00CA202D02B0E03D0C5
:1004D0000CA404D0200E206E1E2A01D0206A0E50DB
:1004E00005E1135014101510161061E00001740E90
:1004F000496F220E4A6F000E4B6F83D9B2EC0CF09D
:10050000E552E5CF4FF0E5CF4EF0E5CF4DF0E7CF28
:100510004CF0000149514C25F36E4A514D21F46EC7
:100520004B514E21F86EF4CFF7FFF3CFF6FF0800E2
:10053000F550126E580E095C05E1610E125C02E383
:10054000200E125E5ED9AFEC0CF0E552E550166E4F
:10055000E550156EE550146EE750136E42EBE9FF5F
:1005600043EBEAFF4206000E435A12EBEFFF1E2A4E
:100570001350141015101610B9E10CA619D06F0EF7
:10058000095C06E10E501E5C13E31E280E6E10D0AF
:10059000780E095C09E0580E095C06E0620E095C01
:1005A00003E0420E095C04E1020E1F6E01D01E6AD8
:1005B000100E0C1407E00D500E5C04E20F5002E127
:1005C0008DEB0EF00E501E5C03E21E500E5E01D04D
:1005D0000E6A0E501E241F24D8800D5407E20E50C0
:1005E0000D5CD8801E54D8801F54116E010E0C145F
:1005F00006E1115004E08AD866E10AD9116A205058
:1006000007E010D920EBE6FF87D802E14A1D5BE046
:100610001F500BE007D9300EE66E7ED802E14A1D6E
:1006200052E0D9D802E14A1D4EE00E501F5C02E2B2
:100630001F500E5E300EE66E0EEBE6FFDCD843E197
:10064000422A000E432242EBE9FF43EBEAFFEF5060
:10065000126E125008E0E6D812EBE6FF5DD8F0E12A
:100660004A1DEEE130D052D82EE10E501E24112446
:100670001F240A262CD01050030A1CE0010A14E0A3
:10068000030A07E0ADD8C9D80AEBEEFF0BEBEDFF8C
:1006900020D08BD84C6B4AAF02D04B694C69A0D8A4
:1006A0004ED84CC0EEFF15D080D84ABF4B6998D8C1
:1006B00046D80FD095D8B1D80AEBEFFF0AD08BD827
:1006C00005E14A1D03E1F368F4680BD00A2A000E25
:1006D0000B22D950020F70D8CDD40AEBF3FF0BEBED
:1006E000F4FF7CE9E5CFDAFFE7CFD9FF1200D9505C
:1006F000020F62D80800F550096E1200005E000E6D
:10070000015A00EBE9FF01EBEAFF1200200EE66E52
:1007100011EBE6FFFBEF03F039EC0FF043E9F3CF09
:1007200049F0F4CF4AF00001F31C120013EBE6FF8E
:1007300014EBE6FF15EBE6FF16EBE6FF12006DD8B3
:1007400049C0EEFF4AC0EEFF4BC0EEFF1200D9CF0A
:10075000E6FFDACFE6FFE1CFD9FFE2CFDAFF120002
:100760001C500D5C116E54D80F501200EECF49F0A2
:10077000EECF4AF0EFCF4BF000014C6B1200EECF02
:1007800049F0EFCF4AF0000112000950E66EE66A28
:10079000E3EC10F042E9F35012004951136E4A5154
:1007A000146E4B51156E4C5112000AEB49F00BEBD5
:1007B0004AF000014B6B1200E96E000EDA20EA6E7F
:1007C000EF2AEECFF6FF000EEF22EECFF7FFEF227B
:1007D000EECFF8FF120026D809EBE6FF8CEF03F00E
:1007E000020E7EEF03F00A0E1202F3500924D00F1E
:1007F000126E77EF03F016D816EC00F044E900090A
:10080000120010EBE6FFE66AE66AE66A96EF03F08E
:1008100011500A26000E0B221200EE50EFCFEAFF15
:10082000E96E120005EBE6FF06EBE6FF1200D8DFEB
:10083000EE501C6EED501D6E1D341200D1DFBFEF67
:0208400003F0C3
:0E084200D9CFE6FFE1CFD9FF82E941E9E7CF48
:10085000D9FF1200D9CFE6FFE1CFD9FF84E941E902
:10086000E7CFD9FF1200D9CFE6FFE1CFD9FF82E968
:1008700041E9E7CFD9FF1200D9CFE6FFE1CFD9FF99
:1008800084E952C0E9FF53C0EAFF1D0EE926000EBD
:10089000EA22EF6A52C0E9FF53C0EAFF1D0EEB5097
:1008A000D880025432E252C0E9FF53C0EAFF1D0E65
:1008B000EB500024E96E000E0120EA6EEF50E66E68
:1008C00052C0E9FF53C0EAFF110EE926000EEA22EA
:1008D000E9CF49F0EACF4AF052C0E9FF53C0EAFF3E
:1008E0001D0EEB500001EA6A4925E96E4A51EA22E1
:1008F000E552E750EF6E52C0E9FF53C0EAFF1D0E0C
:10090000E926000EEA22EF2AC5D752C0E9FF53C0FC
:10091000EAFF1D0EE926000EEA2202EBEFFF52C0AD
:10092000E9FF53C0EAFF1E0EE926000EEA22010E7F
:10093000EF6E52C0E9FF53C0EAFF110EEB50C96ED3
:10094000C68841E9E7CFD9FF1200D9CFE6FFE1CF52
:10095000D9FF82E952C0E9FF53C0EAFF0D0EE92634
:10096000000EEA22010EEF6E52C0E9FF53C0EAFF0B
:100970000C0EE926000EEA22EF6A005035E0C7AA05
:100980001DD052C0E9FF53C0EAFF0E0EE926000E4B
:10099000EA22050EEF6E52C0E9FF53C0EAFF100EC7
:1009A000E926000EEA22EF2A52C0E9FF53C0EAFF0F
:1009B0000F0EE926000EEA22050E1FD0C7A40AD0AA
:1009C00052C0E9FF53C0EAFF0E0EE926000EEA22EC
:1009D000080E13D052C0E9FF53C0EAFF0E0EE926FD
:1009E000000EEA22070E09D052C0E9FF53C0EAFF09
:1009F0000E0EE926000EEA22060EEF6E41E9E7CF61
:100A0000D9FF1200D9CFE6FFE1CFD9FF81E95CE839
:100A1000026A036A046A056A066AC6AC20D0C69CEC
:100A200052C0E9FF53C0EAFF0E0EE926000EEA228B
:100A3000050EEF6E010E066E52C0E9FF53C0EAFFCD
:100A4000100EE926000EEA22EF2A52C0E9FF53C039
:100A5000EAFF0F0EE926000EEA22040EEF6EC7A091
:100A600004D0C950016E010E026E065001E05FD144
:100A700052C0E9FF53C0EAFF0E0EEB50070A01E136
:100A8000B4D00F0A01E17FD00E0A16E0030A01E09C
:100A90004ED1C7A64CD102EBE6FF57DF41E952C069
:100AA000E9FF53C0EAFF0E0EEB50080801E03FD10A
:100AB000026A010E056E3BD1C7A822D052C0E9FFE1
:100AC00053C0EAFF0D0EE926000EEA22EF2A02507B
:100AD00001E123D1C7AAD1D052C0E9FF53C0EAFF38
:100AE000100EE926000EEA22EF2A52C0E9FF53C099
:100AF000EAFF0F0EE926000EEA22060EEF6E0DD178
:100B0000025001E114D152C0E9FF53C0EAFF0D0EBB
:100B1000E926000EEA22EF2AC7BA18D0C7B40AD0D5
:100B200052C0E9FF53C0EAFF0E0EE926000EEA228A
:100B3000070EFCD052C0E9FF53C0EAFF0E0EE926B3
:100B4000000EEA22080EEF6E010ED1D052C0E9FF6E
:100B500053C0EAFF100EE926000EEA22EF2A52C027
:100B6000E9FF53C0EAFF0E0EE926000EEA22050E49
:100B7000EF6E52C0E9FF53C0EAFF0F0EE926000EE8
:100B8000EA22060ED3D052C0E9FF53C0EAFF1E0E80
:100B9000EB500001496F1D0EEB50495D01E3BDD0E4
:100BA00052C0E9FF53C0EAFF110EE926000EEA2207
:100BB000E9CF49F0EACF4AF052C0E9FF53C0EAFF5B
:100BC0001E0EEB50EA6A4925E96E4A51EA22EF50BF
:100BD000C96E52C0E9FF53C0EAFF1E0EE926000E9F
:100BE000EA22EF2A010E036EA2D0C7A849D052C054
:100BF000E9FF53C0EAFF0D0EE926000EEA22EF2AB4
:100C000002503BE0C7AA1CD052C0E9FF53C0EAFF24
:100C100052C049F053C04AF00C0EEB500001EA6A92
:100C20004925E96E4A51EA2201EBEFFF52C0E9FF84
:100C300053C0EAFF0C0EE926000EEA22EF2A1DD06F
:100C400052C0E9FF53C0EAFF100EE926000EEA2267
:100C5000EF2A52C0E9FF53C0EAFF0F0EE926000E4B
:100C6000EA22060EEF6E52C0E9FF53C0EAFF0E0EF5
:100C7000E926000EEA22050E4FD0010E046E4DD07B
:100C8000025055E052C0E9FF53C0EAFF0D0EE926BD
:100C9000000EEA22EF2AC7AA1CD052C0E9FF53C0B7
:100CA000EAFF52C049F053C04AF00C0EEB5000016D
:100CB000EA6A4925E96E4A51EA2201EBEFFF52C088
:100CC000E9FF53C0EAFF0C0EE926000EEA22EF2AE4
:100CD0002ED0C7A40FD052C0E9FF53C0EAFF0E0EBA
:100CE000E926000EEA22080EEF6E010E046E056E74
:100CF000026A1DD052C0E9FF53C0EAFF100EE92678
:100D0000000EEA22EF2A52C0E9FF53C0EAFF0F0E9D
:100D1000E926000EEA22060EEF6E52C0E9FF53C02C
:100D2000EAFF0E0EE926000EEA22050EEF6E0250D3
:100D300002E1035002E0C6A8C68852C0E9FF53C0D2
:100D4000EAFF0C0EEB500A081FE204501DE152C0EE
:100D5000E9FF53C0EAFF0E0EE926000EEA22050E57
:100D6000EF6E52C0E9FF53C0EAFF100EE926000EF5
:100D7000EA22EF2A52C0E9FF53C0EAFF0F0EE9262C
:100D8000000EEA22070EEF6E045031E052C0E9FF78
:100D900053C0EAFF0D0EEB50E66E52C049F053C04F
:100DA0004AF00C0EEB500001EA6A4925E96E4A51FF
:100DB000EA22E552E750EF6E52C0E9FF53C0EAFF66
:100DC00052C049F053C04AF052C0E6FF53C0E6FF9C
:100DD000280EE66E0C0EEB50010FE66E15EC09F0D6
:100DE00044E952C0E9FF53C0EAFF0C0E29D052C0BB
:100DF000E9FF53C0EAFF100EEB500001496F010EEE
:100E0000495D22E352C0E9FF53C0EAFF100EEB50E8
:100E1000076E0F0EEB50086E0D0EEB50096ED95099
:100E2000070FE66EDACFE6FF290EE66E030EE66EDA
:100E300015EC09F044E952C0E9FF53C0EAFF100E77
:100E4000E926000EEA22EF6A05504EE0176A186A9A
:100E500052C0E9FF53C0EAFFEF50AA0844E114EC86
:100E60000AF0F3CF49F0F4CF4AF00001F350F41048
:100E700015E0D9500A0FE66EDACFE6FFD950160F0B
:100E8000E66EDACFE6FF0C0EE66E8CEC09F045E973
:100E90001B6E1C6AE8AE1ED01C681CD0176A186A4C
:100EA0000C0ED89018BE03D0175C000E185812E232
:100EB000D9500A0FE66EDACFE6FFFE0EE350172494
:100EC000E96E41E9E5501820EA6EEF68172A000E36
:100ED0001822E6D7D9500A0FE66EDACFE6FF0C0EDD
:100EE000E66ECADC43E9056A5DE9E7CFD9FF120087
:100EF000D9CFE6FFE1CFD9FF83E900EB52F001EB58
:100F000053F052C0E9FF53C0EAFF0C0EE926000E71
:100F1000EA22EF6A52C0E9FF53C0EAFF0D0EE9264C
:100F2000000EEA22EF6A52C0E9FF53C0EAFF0E0E3C
:100F3000E926000EEA22050EEF6E52C0E9FF53C00B
:100F4000EAFF100EE926000EEA22EF6A41E9E7CF38
:100F5000D9FF1200D9CFE6FFE1CFD9FF82E994860D
:100F6000948800EBC8FFC76AC66AC56A0E0EC6122F
:0E0F7000C78EC580C68A41E9E7CFD9FF1200BF
:020F7E00D9CFC9
:100F8000E6FFE1CFD9FF83E941E800EBE9FF01EBA0
:100F9000EAFF3C0EE926000EEA22EF6A00EBE9FFC9
:100FA00001EBEAFF3D0EE926000EEA22EF6A036A32
:100FB000040E035C0FE200EBE9FF01EBEAFF0350D4
:100FC0000F0DE950F324E96EEA50F420EA6EEF6A5F
:100FD000032AEED742E9E7CFD9FF1200D9CFE6FFC7
:100FE000E1CFD9FF87E945E803500A6E0B6A04EBAD
:100FF000E9FF05EBEAFF3C0EE926000EEA22EF507E
:10100000076E04EBE9FF05EBEAFF07500F0D000147
:10101000F350E924086EF450EA20096E08EBE9FF6A
:1010200009EBEAFFEF5002E0FF0E48D008EBE9FFC2
:1010300009EBEAFFEE5203EBEFFF08EBE9FF09EBE8
:10104000EAFF020EE926000EEA2202EBEFFF0AEBAE
:10105000E6FF0BEBE6FF00EBE6FF01EBE6FF08EB3C
:10106000E9FF09EBEAFF030EE926000EEA22E9CFC9
:1010700049F0EACF4AF0E9CFE6FFEACFE6FF11EC0C
:101080000EF046E904EBE9FF05EBEAFF3C0EE9262A
:10109000000EEA22EF28030BE66E04EBE9FF05EBF6
:1010A000EAFF3C0EE926000EEA22E552E750EF6E19
:1010B00008EBE9FF09EBEAFF010EEF6E46E9E7CF27
:1010C000D9FF1200D9CFE6FFE1CFD9FF88E945E883
:1010D00005EBE9FF06EBEAFF3D0EE926000EEA22EA
:1010E000EF50086E05EBE9FF06EBEAFF08500F0D25
:1010F0000001F350E924096EF450EA200A6E09EB6E
:10110000E9FF0AEBEAFFEF045BE109EBE9FF0AEB19
:10111000EAFFEE52EF50045C02E2FD0E52D009EB02
:10112000E9FF0AEBEAFFEE52EF500B6E0C6A0BEB95
:10113000E6FF0CEBE6FF09EBE9FF0AEBEAFF030E23
:10114000E926000EEA22E9CF49F0EACF4AF0E9CFDA
:10115000E6FFEACFE6FF00EBE6FF01EBE6FF11EC6E
:101160000EF046E905EBE9FF06EBEAFF3D0EE92646
:10117000000EEA22EF28030BE66E05EBE9FF06EB13
:10118000EAFF3D0EE926000EEA22E552E750EF6E37
:1011900009EBE9FF0AEBEAFF020EE926000EEA225C
:1011A000EF50E66E02EBE9FF03EBEAFFE552E75092
:1011B000EF6E09EBE9FF0AEBEAFFEF6A0B5001D093
:1011C000FC0E46E9E7CFD9FF1200D9CFE6FFE1CF09
:1011D000D9FF85E900EBE6FF01EBE6FF02EBE6FF56
:1011E00003EBE6FF000EE66E010EE66EF7DE46E963
:1011F00041E9E7CFD9FF1200D9CFE6FFE1CFD9FF10
:1012000086E900EBE6FF01EBE6FF02EBE6FF03EB0E
:10121000E6FF04EBE6FF000EE66E010EE66E52DF1F
:1012200047E941E9E7CFD9FF1200D9CFE6FFE1CF87
:10123000D9FF85E900EBE6FF01EBE6FF02EBE6FFF5
:1012400003EBE6FFBE0EE66E000EE66EC7DE46E975
:1012500041E9E7CFD9FF1200D9CFE6FFE1CFD9FFAF
:1012600086E900EBE6FF01EBE6FF02EBE6FF03EBAE
:10127000E6FF04EBE6FFBE0EE66E000EE66E22DF32
:1012800047E941E9E7CFD9FF1200D9CFE6FFE1CF27
:10129000D9FF85E900EBE6FF01EBE6FF02EBE6FF95
:1012A00003EBE6FF800EE66E000EE66E97DE46E983
:1012B00041E9E7CFD9FF1200D9CFE6FFE1CFD9FF4F
:1012C00086E900EBE6FF01EBE6FF02EBE6FF03EB4E
:1012D000E6FF04EBE6FF800EE66E000EE66EF2DE41
:1012E00047E941E9E7CFD9FF1200D9CFE6FFE1CFC7
:1012F000D9FF85E900EBE6FF01EBE6FF02EBE6FF35
:1013000003EBE6FF000EE66E000EE66E67DE46E9D2
:1013100041E9E7CFD9FF1200D9CFE6FFE1CFD9FFEE
:1013200086E900EBE6FF01EBE6FF02EBE6FF03EBED
:10133000E6FF04EBE6FF000EE66E000EE66EC2DE90
:1013400047E941E9E7CFD9FF120000013E6B000EEB
:10135000E66E010EE66E13DE42E9BE0EE66E000E8C
:10136000E66E0DDE42E9800EE66E000EE66E07DEEA
:1013700042E9000EE66E000EE66E01DE42E9120062
:10138000D38E03001200D9CFE6FFE1CFD9FF83E966
:1013900000EBE9FF01EBEAFFE9CF49F0EACF4AF0C1
:1013A00000EBE9FF01EBEAFF3D0EE926000EEA2221
:1013B000EF500F0D00014951F324E96E4A51F4201A
:1013C000EA6EEF5041E9E7CFD9FF120000013E512C
:1013D00001E1120081EC0BF0F3CF49F0F4CF4AF0B9
:1013E0000001F350F41001E0120061EC0BF0F3CFB8
:1013F00049F0F4CF4AF00001F350F41001E112007B
:10140000BE0EE66E000EE66EBEDF42E9000901E0A8
:101410001200000EE66E010EE66EB5DF42E900092D
:1014200001E01200C0EF09F0000EE66E000EE66E5D
:10143000AADF42E9000902E0010E01D0000EF36EBE
:10144000F46A12008DEC0BF0F3CF49F0F4CF4AF0C0
:10145000F350F41001E112000001010E3E6FBE0EC8
:10146000E66E000EE66E8FDF42E9000908E1000E2D
:10147000E66E010EE66E87DF42E90009F0E000014A
:041480003E6B1200AD
:0C148400D9CFE6FFE1CFD9FF81E97FE876
:1014900053E8386A396A3A6A3B6A3C6A3D6A3E6A8E
:1014A0003F6A010E406E416A446E456A4D6A4E6A5B
:1014B0004F6A506A516A526A9B8CD950460FE66E49
:1014C000DACFE6FF9BEC0DF042E9190EE66EE66A14
:1014D0006C0EE66EBEEC0EF043E9D950050FE66ED9
:1014E000DACFE6FF78EC07F042E9A5EC09F09E0EB2
:1014F000E66EAAEC07F041E9920EE66E4EEC10F0B3
:1015000041E9350EE66EF3EC0FF041E9806A896A35
:101510000F0E926E32EC10F05CEC0BF09F909F9AE5
:101520009F869D869F8C936A8A6ACE0EE66E1F0EFA
:10153000E66EE66A6CEC0FF043E922EC0AF0D95053
:10154000250FE66EDACFE6FFD950030FE66EDACF4D
:10155000E6FF0C0EE66E2CEC09F045E9026E023453
:1015600016E3FC0E025CE9E002EB49F000014A6B75
:1015700049BF4A6949C0E6FF4AC0E6FFA00EE66ED1
:101580001F0EE66EE66A6CEC0FF045E9D6D7035005
:101590002A0A01E18ED0030A01E182D0010A4DE05E
:1015A000220A30E0250AC9E1D1EB2FF0AA0E306EF5
:1015B000D950250FE66EDACFE6FF03EBE6FF0C0EFF
:1015C000E66E75EC09F044E9523404E2515000082B
:1015D000000E525404E3512A000E522202D0516AE6
:1015E000526A5150521002E1870E08D0010E511874
:1015F00004E1525002E18F0E01D0970EE66ECBEC63
:1016000010F041E9D950250FE66EDACFE6FF02EB84
:1016100049F000014A6B49BF4A6949C0E6FF4AC028
:10162000E6FF0350E66EE66AD950420FE66EDACF67
:10163000E6FF13EC11F048E980D7AF0E255C30E1EE
:10164000D950250FE66EDACFE6FF03EBE6FF050E75
:10165000E66E45EC09F044E929503C6E3D6A000114
:101660003E503C5C496F3F503D584A6F010E49194E
:1016700012E14A5110E18A72630ED8903FBE03D046
:101680003E5C000E3F5804E23E2A000E3F2208D086
:101690003E6A3F6A05D0BCEB3EF0BDEB3FF08A707E
:1016A000316A0250315C02E2312AFBD7A5EB04F02B
:0816B00044D70450AA0A41D7F7
:0816B800D08EF28EF28C9E8CA4
:1016C0001200F250800B800A01E0010E0001496F08
:1016D0004A6B800B01E04A6949C0F3FF4AC0F4FF3E
:1016E0001200F250400B400A01E0010E0001496F68
:1016F0004A6B800B01E04A6949C0F3FF4AC0F4FF1E
:101700001200F2BC04D0DDDFF350F41002E0000E52
:1017100001D0010EF36EF46A1200F3DFF3CF49F04B
:10172000F4CF4AF00001F350F41006E1CADFF350A1
:10173000F41002E1010E01D0000EF36EF46A120003
:10174000DACFE4FFE2CFDAFFE9CFE4FFEACFE4FF4C
:10175000D9CFE4FFDACFE4FFFCC0E4FFFDC0E4FF33
:10176000FEC0E4FFFFC0E4FFF6CFE4FFF7CFE4FFE5
:10177000F5CFE4FFF3CFE4FFF4CFE4FFFACFE4FFCB
:1017800000EE49F0070EE80403E3EECFE4FFFBD7D9
:10179000E6529EA603D09E9602EC05F0F2A403D07A
:1017A000F294FFEC0EF09EAC03D09E9C18EC0FF070
:1017B000E6EC09F0E55200EE4FF0070EE80403E313
:1017C000E5CFEDFFFBD7E5CFFAFFE5CFF4FFE5CF9F
:1017D000F3FFE5CFF5FFE5CFF7FFE5CFF6FFE5CF68
:1017E000FFF0E5CFFEF0E5CFFDF0E5CFFCF0E5CF73
:1017F000DAFFE5CFD9FFE5CFEAFFE5CFE9FFE5CF97
:10180000DAFF1100D8CFE4FFE0CFE4FFE46EDACFD7
:10181000E4FFE2CFDAFFE9CFE4FFEACFE4FFD9CF7C
:10182000E4FFDACFE4FFFCC0E4FFFDC0E4FFFEC04C
:10183000E4FFFFC0E4FFF6CFE4FFF7CFE4FFF5CF0E
:10184000E4FFF3CFE4FFF4CFE4FFFACFE4FF00EED0
:1018500049F0070EE80403E3EECFE4FFFBD7E652BE
:101860009EA003D09E9011EC0FF09EAA03D09E9AEA
:1018700046EC0DF0E55200EE4FF0070EE80403E3EE
:10188000E5CFEDFFFBD7E5CFFAFFE5CFF4FFE5CFDE
:10189000F3FFE5CFF5FFE5CFF7FFE5CFF6FFE5CFA7
:1018A000FFF0E5CFFEF0E5CFFDF0E5CFFCF0E5CFB2
:1018B000DAFFE5CFD9FFE5CFEAFFE5CFE9FFE5CFD6
:0E18C000DAFFE550E5CFE0FFE5CFD8FF1000DE
:0218CE0043E8ED
:1018D000D9CFE6FFDACFE6FFE1CFD9FFE2CFDAFFDB
:1018E00089E9066A1200F3DF068003D0F0DF01D039
:1018F0000682056A046A100EE76ED8900236033637
:10190000043605360050045C0150055805E30050CC
:10191000045E0150055A022AE72EF0D706B21200E3
:1019200006B006D084EB00F085EB01F006A004D0F1
:1019300082EB00F083EB01F0E552E5CFDAFFE7CF71
:10194000D9FF45E9120045E8D9CFE6FFDACFE6FF37
:10195000E1CFD9FFE2CFDAFF8FE90C6A1200F3DFA3
:101960000C8003D0F0DF01D00C820B6A0A6A096A8E
:10197000086A200EE76ED89004360536063607361C
:10198000083609360A360B360050085C01500958F3
:1019900002500A5803500B5809E30050085E0150EA
:1019A000095A02500A5A03500B5A042AE72EE4D768
:1019B0000CB212000CB00AD088EB00F089EB01F0F9
:1019C0008AEB02F08BEB03F00CA008D084EB00F064
:1019D00085EB01F086EB02F087EB03F0E552E5CFF3
:1019E000DAFFE7CFD9FF49E9120044E8D9CFE6FF93
:1019F000DACFE6FFE1CFD9FFE2CFDAFF8EE980EB65
:101A000008F081EB09F082EB0AF083EB0BF0045055
:101A10000802F350006EF450016E04500902F350B6
:101A20000126000EF420026E04500A02F350022632
:101A3000000EF420036E04500B02F35003260550F1
:101A40000802F3500126F4500222000E0322055032
:101A50000902F3500226F450032205500A02F35003
:101A6000032606500802F3500226F45003220650C3
:101A70000902F350032607500802F3500326E552EB
:0C1A8000E5CFDAFFE7CFD9FF48E9000C02
:041A8C009EAA44D0FA
:101A900013EC10F0E66E50C0E9FF51C0EAFF50C0F1
:101AA00049F051C04AF0040EEB500001EA6A4925A2
:101AB000E96E4A51EA22E552E750EF6E50C0E9FF65
:101AC00051C0EAFF040EE926000EEA22EF2A50C0B8
:101AD000E9FF51C0EAFF040EEB5004081DE150C0BD
:101AE000E9FF51C0EAFF50C049F051C04AF050C070
:101AF000E6FF51C0E6FF1F0EE66E040EEB50E66EE9
:101B0000E5EC08F044E950C0E9FF51C0EAFF040EDB
:101B1000E926000EEA22EF6A000156A70BD0AB9827
:101B2000AB88000EE66EE66A1E0EE66EE66AE5EC2F
:101B300008F044E91200D9CFE6FFE1CFD9FF83E9ED
:101B400000EB50F001EB51F050C0E9FF51C0EAFF4B
:101B5000040EE926000EEA22EF6A41E9E7CFD9FF39
:021B6000120071
:0E1B6200D9CFE6FFE1CFD9FF83E900EBE9FF21
:101B700001EBEAFFEE6AED6A41E9E7CFD9FF120017
:101B8000D9CFE6FFE1CFD9FF89E941E806EBE9FFCC
:101B900007EBEAFFEE2A000EEF220A0EE66EE66A77
:101BA00006EBE9FF07EBEAFFEECFE6FFEECFE6FF3D
:101BB00076EC0CF0E552E5CF4AF0E7CF49F00001B2
:101BC000090E49192AE14A5128E106EBE9FF07EB22
:101BD000EAFFE9CF49F0EACF4AF0E9CFE6FFEACFE2
:101BE000E6FF140EE66E020EE66E75EC09F044E9AF
:101BF000096E093412E309EB49F000014A6B49BF51
:101C00004A6949C0E6FF4AC0E6FFD60EE66E1F0EDF
:101C1000E66EE66A6CEC0FF045E942E9E7CFD9FFE2
:021C20001200B0
:0E1C2200D9CFE6FFDACFE6FFFA0EE3CFD9FF07
:101C3000FB0EE3CFDAFFFC0EE3CFE9FFFD0EE3CFAF
:101C4000EAFFE9CFF3FFEACFF4FFF80EE35003E138
:101C5000F90EE35008E0F80EE30602E2F90EE3069F
:101C6000DECFEEFFF2D7FF0EE3CFDAFFE552FF0E35
:101C7000E3CFD9FFE5521200FE0EE3CFE9FFFF0EDE
:101C8000E3CFEAFFF36AF46AEE5203E0F34AF42A80
:101C9000FBD71200FF0EE3CFF8FFE552FF0EE3CFB4
:101CA000F7FFE552FF0EE3CFF6FFE552E66AE66A7C
:101CB000E66A0900F55209E0FD0EE32A05E1FE0E91
:101CC000E32A02E1FF0EE32AF4D7FD0EE3CFFCF096
:0E1CD000FE0EE3CFFDF0FF0EE3CFFEF012009C
:021CDE001E0ED8
:101CE000F66E000EF76E000EF86E00010900F5505A
:101CF000446F0900F550456F03E1446701D03DD0C2
:101D00000900F5503F6F0900F550406F0900F5508C
:101D1000416F09000900F550E96E0900F550EA6EBF
:101D2000090009000900F550426F0900F550436FA2
:101D300009000900F6CF46F0F7CF47F0F8CF48F09A
:101D40003FC0F6FF40C0F7FF41C0F8FF000142531B
:101D500002E1435307E00900F550EE6E4207F8E256
:101D60004307F9D746C0F6FF47C0F7FF48C0F8FF62
:0C1D700000014407000E455BBFD71200C5
:041D7C00D9CFE6FFD6
:101D8000DACFE6FFE1CFD9FFE2CFDAFF85E9AC6A2F
:101D9000AB6A02B0AC8802A202D0AC8CAB8C02B4AD
:101DA000AC8E02A602D0AB8801D0AB8A02B8AC845C
:101DB0009E9802BAAB8602AC02D09D8A01D09D9A51
:101DC0009E9A02AE02D09D8801D09D9800EBAFFF95
:101DD000000101EB49F04A6B49C0B0FFAC8AAB8E01
:101DE000949C948EAC50100B04E0AC50800B01E13D
:0E1DF000948C41E9E5CFDAFFE7CFD9FF12006E
:021DFE00D9CF3B
:101E0000E6FFE1CFD9FF81E946E8000EE66EE66A1B
:101E1000B3EC10F042E90AEC00F047E9E7CFD9FF54
:101E20001200000EE66EE66A83EC10F042E9120042
:101E3000D9CFE6FFE1CFD9FF81E943E82EEC11F0DD
:101E4000C450016EC350026E9BEC10F0F350036E51
:101E5000D950010FE66EDACFE6FF2F0EE66E030EC5
:101E6000E66E15EC09F044E99E9C44E9E7CFD9FF02
:021E700012005E
:0E1E7200D9CFE6FFDACFE6FFE1CFD9FFE2CF0E
:101E8000DAFF85E9013415E200EBE9FF01EBEAFF37
:101E9000EECFF3FFEDCFF4FFEE2A000EEF22F3CFEB
:101EA000E9FFF4CFEAFF02EBEFFFEF50F36EF46AC5
:101EB0000DD0FE0E005C05E102EBE6FF05EC11F033
:101EC00004D002EBE6FF03EC00F041E941E9E5CF85
:081ED000DAFFE7CFD9FF120091
:081ED800D9CFE6FFDACFE6FFE7
:101EE000E1CFD9FFE2CFDAFF85E944E8D9CFE6FFB9
:101EF000DACFE6FFE552E550066EE750056E05EBDA
:101F0000E6FF06EBE6FF00EBE6FF01EBE6FF02EB88
:101F1000E6FF54C0E6FF55C0E6FF2FEC00F047E9AE
:101F2000F350076EF450086E07EBF3FF08EBF4FF75
:0C1F300045E9E5CFDAFFE7CFD9FF12004A
:041F3C00D9CFE6FF14
:101F4000DACFE6FFE1CFD9FFE2CFDAFF85E9C26A57
:101F5000C06A01407F0B3C0BC26E0138F00B300BA6
:101F60000001496F0F0E00144911C16E0250040D9B
:101F7000F350380B4A6F02380F0B070B496F800E76
:101F8000021449114A11C06E01AE03D09E9C9D8C73
:101F9000F28CC28041E9E5CFDAFFE7CFD9FF12002A
:101FA0004572726F723A20426164206869676820E6
:101FB0007072696F7269747920726563656976659C
:101FC0002C20636F6465203D2025780D0A0048654C
:101FD0006C6C6F0D0A0053656E644572726F7220EF
:051FE00025640D0A005C
:0A1FE600D9CFE6FFDACFE6FFE1CF26
:101FF000D9FFE2CFDAFF83E97E0E0014CD6E00AC8C
:1020000002D0CD8E01D0CD9ECF6ACE6A9E9000AE1A
:1020100002D09D8001D09D90CD8041E9E5CFDAFFCF
:06202000E7CFD9FF12001A
:0A202600D9CFE6FFDACFE6FFE1CFE5
:10203000D9FFE2CFDAFF82E941E8F20E000156173C
:10204000ABAC03D05691ABB05681ABB45685ABB2B6
:102050005687AE50026E025042E9E5CFDAFFE7CF75
:04206000D9FF120092
:0C2064000B0EE66E840EE66EAB0EE66E10
:102070009EEC0FF043E9870EE66ECBEC10F041E9E1
:102080001200D9CFE6FFE1CFD9FF83E90AEC00F0D7
:0C20900041E9E7CFD9FF120007EF00F094
:04209C00D9CFE6FFB3
:1020A000DACFE6FFE1CFD9FFE2CFDAFF83E97F0E97
:1020B0000014D56ED76AD66AF29400AE02D0F28AC6
:1020C00001D0F29AD58E41E9E5CFDAFFE7CFD9FF0B
:0220D0001200FC
:0E20D200D9CFE6FFE1CFD9FF89E91E0E041831
:1020E00002E105500CE01F0E041809E1055007E15C
:1020F00000500224E96E01500320EA6EEF6A41E9C4
:06210000E7CFD9FF120039
:0A210600D9CFE6FFDACFE6FFE1CF04
:10211000D9FFE2CFDAFF84E942E880EB04F081EBFB
:1021200005F005EBCFFF04EBCEFF43E9E5CFDAFF87
:06213000E7CFD9FF120009
:0A213600D9CFE6FFDACFE6FFE1CFD4
:10214000D9FFE2CFDAFF82E942E8CE50026ECF50EB
:10215000036E02EBF3FF03EBF4FF43E9E5CFDAFF95
:06216000E7CFD9FF1200D9
:0A216600D9CFE6FFDACFE6FFE1CFA4
:10217000D9FFE2CFDAFF84E942E880EB04F081EB9B
:1021800005F005EBD7FF04EBD6FF43E9E5CFDAFF17
:06219000E7CFD9FF1200A9
:0A219600D9CFE6FFDACFE6FFE1CF74
:1021A000D9FFE2CFDAFF83E9C30EC2140001496F01
:1021B00000407F0B3C0B4911C26E41E9E5CFDAFFCD
:0621C000E7CFD9FF120079
:0A21C600F36AF46AFF0EE124E96EEB
:1021D000FF0EE220EA6EED6607D02F0EEF6404D00A
:0A21E0003A0EEF6001D0F32A12005E
:0621EA00000EF36E00EE92
:1021F00000F0040E01D81200EA6002D0EE6AFCD7AB
:0A220000F350E9601200EE6AFCD70B
:06220A00FF0EE350ACBA28
:1022100004D0AF6AAB8EAC8A949CACA2FED7AD6EF4
:06222000F36EF46A1200E7
:0A222600D9CFE6FFE1CFD9FF89E927
:1022300042E880EB09F081EB0AF043E9E7CFD9FFF0
:0222400012008A
:0E22420013EE00F023EE00F0F86A6FEC0EF0E1
:0C22500043EC11F042EC0AF0FBD7120046
:04225C00C4CF4BF0B0
:102260004BC04CF000014B6BC3504B11F36E4CC094
:04227000F4FF120065
:0C2274003031323334353637383961628E
:052280006364656600C7
:02228600120044
:02228800FEFF57
:017FF800E0A8
:017FFA00C5C1
:00000001FF
