:020000040000FA
:060000008BEF11F012006D
:020006001200E6
:06000800A3EF0AF0120054
:02000E00C2909E
:040010009D9C1200A1
:04001400C282120092
:0600180005EF0BF01200E1
:02001E000100DF
:0C0020005C2300003D0000000200000016
:04002C0090DB86E9F6
:100030000150010600090CE002EBE6FF03EBE6FFCE
:1000400000EBE6FF69DBF4E1F71DF2E1010E01D000
:10005000000E41E9E5CFDAFFE7CFD9FF120077DBE9
:1000600089E97BE80A6A0B6A02EBF6FF03EBF7FF0C
:1000700004EBF8FF0800F550096E095001E12DD39B
:10008000250E095C01E01BD30C6A0D6A0E6A0F6A2B
:10009000106A2DDB2D0E095C0CE02B0E095C09E0CB
:1000A000200E095C06E0230E095C03E0300E095CBB
:1000B00015E10950300A10E0130A0CE0030A08E0C9
:1000C0000B0A04E0060AE5E10C80E3D70C82E1D7D5
:1000D0000C84DFD70C86DDD70C88DBD72A0E095CB1
:1000E00013E1A5DB0DE30C801CEBF6F01DEBF7F044
:1000F0000001F66DF71F000EF723F6510D6E02D0CA
:100100009CEB0DF0F4DA07D0126A3FDB02E06BDB08
:10011000FCD792EB0DF00CB00C982E0E095C15E19B
:10012000E6DA2A0E095C08E182DB04E29CEB0EF0C1
:10013000010E0F6EDCDA09D0126A27DB02E053DB16
:10014000FCD792EB0EF0010E0F6E680E095C07E112
:10015000CEDA680E095C1DE1030E106E19D0740E24
:10016000095C16E07A0E095C13E0480E095C06E0B3
:10017000540E095C03E05A0E095C02E1020E07D03E
:100180006C0E095C03E06A0E095C03E1010E106E5F
:10019000AEDA09506E0A01E16ED21E0A01E128D1E1
:1001A000200A01E125D13F0A01E1FDD01A0A01E14F
:1001B000FAD00D0A01E1F7D0200A01E1F4D03A0AA1
:1001C00001E1F1D0200A01E1EED0260A01E1EAD0F6
:1001D0000D0A01E1E7D01A0A01E19ED0200A3BE0B6
:1001E000300A1AE0460A0EE0250A01E072D2D95020
:1001F000020FE96E000EDA20EA6E010EEE5E000ECE
:10020000EE5AEE5A0FDB250EE66E86DA03E1F71D95
:1002100001E159D20A2A5BD2116A0D50010803E2AA
:100220000D04116EF5DA115007E0010E0C1404E113
:100230006DDA01E048D2116AD3DAEF50096ECBDAF9
:1002400003E1F71D01E13FD20A2A000E0B225EDA1C
:1002500001E13FD238D2020E105C08E1030E4EDA03
:10026000EE50176EEE50186EEF5007D0E7DAF86BCD
:10027000F651176EF751186EF851196E17EBE6FF2D
:1002800018EBE6FF19EBE6FF05EC0FF043E937C08A
:10029000F6F038C0F7F039C0F8F00001F6511C6EE6
:1002A000F7511D6E0F5006E01C500E5C03E20E501D
:1002B0001C6E1D6A1C500D5C02E29CEB0DF050DAC6
:1002C00005E00D500E5C02E28EEB0DF00CB004D098
:1002D0001DDA01E0F8D1116A126A17EBF6FF18EB8C
:1002E000F7FF19EBF8FF0800F550096E095010E010
:1002F0000D50125C0DE26FDA03E1F71D01E1E3D16D
:100300000A2A000E0B22122AD950170F55DAEBD702
:10031000FDD901E1DED1D7D163DAEE501A6EED508E
:100320001B6E1AEBE6FF1BEBE6FFF7EC0EF042E963
:10033000F3501C6EF4501D6E0F5006E01C500E5C06
:1003400003E20E501C6E1D6A1C500D5C02E29CEB19
:100350000DF006DA05E00D500E5C02E28EEB0DF0BA
:100360000CB004D0D3D901E0AED1116A126A1AEBF5
:10037000E9FF1BEBEAFFEF50096E09500FE00D504B
:10038000125C0CE228DA03E1F71D01E19CD10A2A94
:10039000000E0B22122A1A2A1B22E9D7B7D901E133
:1003A00098D191D10C8E10040AE1040EA7D9EE5019
:1003B000136EEE50146EEE50156EEF5032D0030EE9
:1003C000105C16E10CAE0CD00BDAEFCFF6F00001AA
:1003D000F76BF86BF96BF6AF23D0F769F8691FD0AC
:1003E000FFD9EFCFF6F00001F651136E146A20D05A
:1003F000020E105C0CE10CAE06D0030E7FD9B6D90C
:10040000F8AF0ED00CD0030E79D9B0D909D00CAE0C
:100410000AD014DAF86BF96BF7AF02D0F869F96912
:10042000BCD9166E07D00ADAF651136EF751146E66
:10043000156A166A0F5002E1010E0E6E1E6A1F6ADF
:10044000D950400FE66E000EDA20E66EE552E55018
:10045000436EE750426E416A116A0A0E106E0950EF
:10046000780A12E0200A10E0280A0CE0200A0AE0CC
:100470003F0A06E00D0A02E0200A08E1020E05D05C
:10048000080E03D0080E0926100E106E0CBE02D006
:100490000C920C94800E0C1417E0163415E3E668E9
:1004A000E668E668E66842D9F8EC0BF0E552E5CF7D
:1004B000F9F0E5CFF8F0E5CFF7F0E7CFF6F000017F
:1004C0006CD9166E2D0E07D00CA202D02B0E03D0C5
:1004D0000CA404D0200E206E1E2A01D0206A0E50DB
:1004E00005E1135014101510161061E00001480EBC
:1004F000F66F230EF76F000EF86F83D9B5EC0BF093
:10050000E552E5CFFCF0E5CFFBF0E5CFFAF0E7CF21
:10051000F9F00001F651F925F36EF751FA21F46E66
:10052000F851FB21F86EF4CFF7FFF3CFF6FF080088
:10053000F550126E580E095C05E1610E125C02E383
:10054000200E125E5ED9B2EC0BF0E552E550166E4D
:10055000E550156EE550146EE750136E42EBE9FF5F
:1005600043EBEAFF4206000E435A12EBEFFF1E2A4E
:100570001350141015101610B9E10CA619D06F0EF7
:10058000095C06E10E501E5C13E31E280E6E10D0AF
:10059000780E095C09E0580E095C06E0620E095C01
:1005A00003E0420E095C04E1020E1F6E01D01E6AD8
:1005B000100E0C1407E00D500E5C04E20F5002E127
:1005C0008DEB0EF00E501E5C03E21E500E5E01D04D
:1005D0000E6A0E501E241F24D8800D5407E20E50C0
:1005E0000D5CD8801E54D8801F54116E010E0C145F
:1005F00006E1115004E08AD866E10AD9116A205058
:1006000007E010D920EBE6FF87D802E1F71D5BE099
:100610001F500BE007D9300EE66E7ED802E1F71DC1
:1006200052E0D9D802E1F71D4EE00E501F5C02E205
:100630001F500E5E300EE66E0EEBE6FFDCD843E197
:10064000422A000E432242EBE9FF43EBEAFFEF5060
:10065000126E125008E0E6D812EBE6FF5DD8F0E12A
:10066000F71DEEE130D052D82EE10E501E24112499
:100670001F240A262CD01050030A1CE0010A14E0A3
:10068000030A07E0ADD8C9D80AEBEEFF0BEBEDFF8C
:1006900020D08BD8F96BF7AF02D0F869F969A0D8F0
:1006A0004ED8F9C0EEFF15D080D8F7BFF86998D8BA
:1006B00046D80FD095D8B1D80AEBEFFF0AD08BD827
:1006C00005E1F71D03E1F368F4680BD00A2A000E78
:1006D0000B22D950020F70D8CDD40AEBF3FF0BEBED
:1006E000F4FF7CE9E5CFDAFFE7CFD9FF1200D9505C
:1006F000020F62D80800F550096E1200005E000E6D
:10070000015A00EBE9FF01EBEAFF1200200EE66E52
:1007100011EBE6FFFBEF03F0BAEC0FF043E9F3CF88
:10072000F6F0F4CFF7F00001F31C120013EBE6FF34
:1007300014EBE6FF15EBE6FF16EBE6FF12006DD8B3
:10074000F6C0EEFFF7C0EEFFF8C0EEFF1200D9CF03
:10075000E6FFDACFE6FFE1CFD9FFE2CFDAFF120002
:100760001C500D5C116E54D80F501200EECFF6F0F5
:10077000EECFF7F0EFCFF8F00001F96B1200EECFFB
:10078000F6F0EFCFF7F0000112000950E66EE66ACE
:100790005BEC11F042E9F3501200F651136EF75181
:1007A000146EF851156EF95112000AEBF6F00BEBCE
:1007B000F7F00001F86B1200E96E000EDA20EA6E25
:1007C000EF2AEECFF6FF000EEF22EECFF7FFEF227B
:1007D000EECFF8FF120026D809EBE6FF8CEF03F00E
:1007E000020E7EEF03F00A0E1202F3500924D00F1E
:1007F000126E77EF03F016D816EC00F044E900090A
:10080000120010EBE6FFE66AE66AE66A96EF03F08E
:1008100011500A26000E0B221200EE50EFCFEAFF15
:10082000E96E120005EBE6FF06EBE6FF1200D8DFEB
:10083000EE501C6EED501D6E1D341200D1DFBFEF67
:0208400003F0C3
:0E084200D9CFE6FFE1CFD9FF82E941E9E7CF48
:10085000D9FF1200D9CFE6FFE1CFD9FF84E941E902
:10086000E7CFD9FF1200D9CFE6FFE1CFD9FF82E968
:1008700041E9E7CFD9FF1200D9CFE6FFE1CFD9FF99
:1008800084E93BC0E9FF3CC0EAFF190EE926000EEF
:10089000EA22EF6A3BC0E9FF3CC0EAFF190EEB50C9
:1008A000D880025432E23BC0E9FF3CC0EAFF190E97
:1008B000EB500024E96E000E0120EA6EEF50E66E68
:1008C0003BC0E9FF3CC0EAFF0F0EE926000EEA221A
:1008D000E9CFF6F0EACFF7F03BC0E9FF3CC0EAFF12
:1008E000190EEB500001EA6AF625E96EF751EA228B
:1008F000E552E750EF6E3BC0E9FF3CC0EAFF190E3E
:10090000E926000EEA22EF2AC5D73BC0E9FF3CC02A
:10091000EAFF190EE926000EEA2202EBEFFF3BC0C8
:10092000E9FF3CC0EAFF1A0EE926000EEA22010E9A
:10093000EF6E3BC0E9FF3CC0EAFF0F0EEB50C96E03
:10094000C68841E9E7CFD9FF1200D9CFE6FFE1CF52
:10095000D9FF82E93BC0E9FF3CC0EAFF0B0EE92664
:10096000000EEA22010EEF6E3BC0E9FF3CC0EAFF39
:100970000A0EE926000EEA22EF6A005035E0C7AA07
:100980001DD03BC0E9FF3CC0EAFF0C0EE926000E7B
:10099000EA22050EEF6E3BC0E9FF3CC0EAFF0E0EF7
:1009A000E926000EEA22EF2A3BC0E9FF3CC0EAFF3D
:1009B0000D0EE926000EEA22050E1FD0C7A40AD0AC
:1009C0003BC0E9FF3CC0EAFF0C0EE926000EEA221C
:1009D000080E13D03BC0E9FF3CC0EAFF0C0EE9262D
:1009E000000EEA22070E09D03BC0E9FF3CC0EAFF37
:1009F0000C0EE926000EEA22060EEF6E41E9E7CF63
:100A0000D9FF1200D9CFE6FFE1CFD9FF81E952E843
:100A1000026A036A046A056A066AC6AC20D0C69CEC
:100A20003BC0E9FF3CC0EAFF0C0EE926000EEA22BB
:100A3000050EEF6E010E066E3BC0E9FF3CC0EAFFFB
:100A40000E0EE926000EEA22EF2A3BC0E9FF3CC069
:100A5000EAFF0D0EE926000EEA22040EEF6EC7A093
:100A600004D0C950016E010E026E065001E05FD144
:100A70003BC0E9FF3CC0EAFF0C0EEB50070A01E166
:100A8000B4D00F0A01E17FD00E0A16E0030A01E09C
:100A90004ED1C7A64CD102EBE6FF57DF41E93BC080
:100AA000E9FF3CC0EAFF0C0EEB50080801E03FD123
:100AB000026A010E056E3BD1C7A822D03BC0E9FFF8
:100AC0003CC0EAFF0B0EE926000EEA22EF2A025094
:100AD00001E123D1C7AAD1D03BC0E9FF3CC0EAFF66
:100AE0000E0EE926000EEA22EF2A3BC0E9FF3CC0C9
:100AF000EAFF0D0EE926000EEA22060EEF6E0DD17A
:100B0000025001E114D13BC0E9FF3CC0EAFF0B0EEB
:100B1000E926000EEA22EF2AC7BA18D0C7B40AD0D5
:100B20003BC0E9FF3CC0EAFF0C0EE926000EEA22BA
:100B3000070EFCD03BC0E9FF3CC0EAFF0C0EE926E3
:100B4000000EEA22080EEF6E010ED1D03BC0E9FF85
:100B50003CC0EAFF0E0EE926000EEA22EF2A3BC057
:100B6000E9FF3CC0EAFF0C0EE926000EEA22050E62
:100B7000EF6E3BC0E9FF3CC0EAFF0D0EE926000E18
:100B8000EA22060ED3D03BC0E9FF3CC0EAFF1A0EB2
:100B9000EB500001F66F190EEB50F65D01E3BDD08E
:100BA0003BC0E9FF3CC0EAFF0F0EE926000EEA2237
:100BB000E9CFF6F0EACFF7F03BC0E9FF3CC0EAFF2F
:100BC0001A0EEB50EA6AF625E96EF751EA22EF5069
:100BD000C96E3BC0E9FF3CC0EAFF1A0EE926000ED1
:100BE000EA22EF2A010E036EA2D0C7A849D03BC06B
:100BF000E9FF3CC0EAFF0B0EE926000EEA22EF2ACD
:100C000002503BE0C7AA1CD03BC0E9FF3CC0EAFF52
:100C10003BC0F6F03CC0F7F00A0EEB500001EA6A68
:100C2000F625E96EF751EA2201EBEFFF3BC0E9FF41
:100C30003CC0EAFF0A0EE926000EEA22EF2A1DD088
:100C40003BC0E9FF3CC0EAFF0E0EE926000EEA2297
:100C5000EF2A3BC0E9FF3CC0EAFF0D0EE926000E7B
:100C6000EA22060EEF6E3BC0E9FF3CC0EAFF0C0E25
:100C7000E926000EEA22050E4FD0010E046E4DD07B
:100C8000025055E03BC0E9FF3CC0EAFF0B0EE926ED
:100C9000000EEA22EF2AC7AA1CD03BC0E9FF3CC0E5
:100CA000EAFF3BC0F6F03CC0F7F00A0EEB50000143
:100CB000EA6AF625E96EF751EA2201EBEFFF3BC045
:100CC000E9FF3CC0EAFF0A0EE926000EEA22EF2AFD
:100CD0002ED0C7A40FD03BC0E9FF3CC0EAFF0C0EEA
:100CE000E926000EEA22080EEF6E010E046E056E74
:100CF000026A1DD03BC0E9FF3CC0EAFF0E0EE926A8
:100D0000000EEA22EF2A3BC0E9FF3CC0EAFF0D0ECD
:100D1000E926000EEA22060EEF6E3BC0E9FF3CC05A
:100D2000EAFF0C0EE926000EEA22050EEF6E0250D5
:100D300002E1035002E0C6A8C6883BC0E9FF3CC000
:100D4000EAFF0A0EEB5008081FE204501DE13BC009
:100D5000E9FF3CC0EAFF0C0EE926000EEA22050E70
:100D6000EF6E3BC0E9FF3CC0EAFF0E0EE926000E25
:100D7000EA22EF2A3BC0E9FF3CC0EAFF0D0EE9265C
:100D8000000EEA22070EEF6E045031E03BC0E9FF8F
:100D90003CC0EAFF0B0EEB50E66E3BC0F6F03CC0E9
:100DA000F7F00A0EEB500001EA6AF625E96EF751FA
:100DB000EA22E552E750EF6E3BC0E9FF3CC0EAFF94
:100DC0003BC0F6F03CC0F7F03BC0E6FF3CC0E6FF9E
:100DD000280EE66E0A0EEB50010FE66E2CEC09F0C1
:100DE00044E93BC0E9FF3CC0EAFF0A0E29D03BC002
:100DF000E9FF3CC0EAFF0E0EEB500001F66F010E5A
:100E0000F65D22E33BC0E9FF3CC0EAFF0E0EEB506B
:100E1000076E0D0EEB50086E0B0EEB50096ED9509D
:100E2000070FE66EDACFE6FF290EE66E030EE66EDA
:100E30002CEC09F044E93BC0E9FF3CC0EAFF0E0E90
:100E4000E926000EEA22EF6A055035E00D6A0E6AC7
:100E50003BC0E9FF3CC0EAFFAA0EEF6E00092AE0A2
:100E600031EC0AF0F3CFF6F0F4CFF7F00001F350D5
:100E7000F41015E0D9500A0FE66EDACFE6FFD9502C
:100E80000C0FE66EDACFE6FF020EE66EE3EC08F03A
:100E900045E9116E126AE8AE04D0126802D00A6801
:100EA0000B68D9500A0FE66EDACFE6FF020EE66E47
:100EB000E3DC43E9056A53E9E7CFD9FF1200D9CF54
:100EC000E6FFE1CFD9FF83E900EB3BF001EB3CF01B
:100ED0003BC0E9FF3CC0EAFF0A0EE926000EEA2209
:100EE000EF6A3BC0E9FF3CC0EAFF0B0EE926000EAB
:100EF000EA22EF6A3BC0E9FF3CC0EAFF0C0EE9269C
:100F0000000EEA22050EEF6E3BC0E9FF3CC0EAFF8F
:100F10000E0EE926000EEA22EF6A41E9E7CFD9FF7B
:100F20001200D9CFE6FFE1CFD9FF82E994869488F9
:100F300000EBC8FFC76AC66AC56A0E0EC612C78E26
:0C0F4000C580C68A41E9E7CFD9FF120046
:040F4C00D9CFE6FF14
:100F5000E1CFD9FF83E941E800EBE9FF01EBEAFFCC
:100F6000340EE926000EEA22EF6A00EBE9FF01EBFE
:100F7000EAFF350EE926000EEA22EF6A036A040E44
:100F8000035C0FE200EBE9FF01EBEAFF03500D0DFC
:100F9000E950F324E96EEA50F420EA6EEF6A032A7E
:100FA000EED742E9E7CFD9FF1200D9CFE6FFE1CF74
:100FB000D9FF87E945E803500A6E0B6A04EBE9FFA5
:100FC00005EBEAFF340EE926000EEA22EF50076E29
:100FD00004EBE9FF05EBEAFF07500D0D0001F350AC
:100FE000E924086EF450EA20096E08EBE9FF09EBEA
:100FF000EAFFEF5002E0FF0E48D008EBE9FF09EBF3
:10100000EAFFEE5203EBEFFF08EBE9FF09EBEAFF23
:10101000020EE926000EEA2202EBEFFF0AEBE6FFE2
:101020000BEBE6FF00EBE6FF01EBE6FF08EBE9FF69
:1010300009EBEAFF030EE926000EEA22E9CFF6F0FB
:10104000EACFF7F0E9CFE6FFEACFE6FFCCEC0EF00F
:1010500046E904EBE9FF05EBEAFF340EE926000E52
:10106000EA22EF28030BE66E04EBE9FF05EBEAFF4B
:10107000340EE926000EEA22E552E750EF6E08EB47
:10108000E9FF09EBEAFF010EEF6E46E9E7CFD9FF72
:101090001200D9CFE6FFE1CFD9FF88E945E805EB9B
:1010A000E9FF06EBEAFF350EE926000EEA22EF50D3
:1010B000086E05EBE9FF06EBEAFF08500D0D000195
:1010C000F350E924096EF450EA200A6E09EBE9FFB7
:1010D0000AEBEAFFEF045BE109EBE9FF0AEBEAFF49
:1010E000EE52EF50045C02E2FD0E52D009EBE9FF34
:1010F0000AEBEAFFEE52EF500B6E0C6A0BEBE6FFC9
:101100000CEBE6FF09EBE9FF0AEBEAFF030EE92629
:10111000000EEA22E9CFF6F0EACFF7F0E9CFE6FFDA
:10112000EACFE6FF00EBE6FF01EBE6FFCCEC0EF0CA
:1011300046E905EBE9FF06EBEAFF350EE926000E6E
:10114000EA22EF28030BE66E05EBE9FF06EBEAFF68
:10115000350EE926000EEA22E552E750EF6E09EB64
:10116000E9FF0AEBEAFF020EE926000EEA22EF5041
:10117000E66E02EBE9FF03EBEAFFE552E750EF6EA4
:1011800009EBE9FF0AEBEAFFEF6A0B5001D0FC0E16
:1011900046E9E7CFD9FF1200D9CFE6FFE1CFD9FF6B
:1011A00085E900EBE6FF01EBE6FF02EBE6FF03EB70
:1011B000E6FF800EE66E000EE66EF7DE46E941E9D8
:1011C000E7CFD9FF1200D9CFE6FFE1CFD9FF86E9FB
:1011D00000EBE6FF01EBE6FF02EBE6FF03EBE6FFC9
:1011E00004EBE6FF800EE66E000EE66E52DF47E986
:1011F00041E9E7CFD9FF1200D9CFE6FFE1CFD9FF10
:1012000085E900EBE6FF01EBE6FF02EBE6FF03EB0F
:10121000E6FFB60EE66E000EE66EC7DE46E941E971
:10122000E7CFD9FF1200D9CFE6FFE1CFD9FF86E99A
:1012300000EBE6FF01EBE6FF02EBE6FF03EBE6FF68
:1012400004EBE6FFB60EE66E000EE66E22DF47E91F
:1012500041E9E7CFD9FF1200D9CFE6FFE1CFD9FFAF
:1012600085E900EBE6FF01EBE6FF02EBE6FF03EBAF
:10127000E6FF360EE66E010EE66E97DE46E941E9C0
:10128000E7CFD9FF1200D9CFE6FFE1CFD9FF86E93A
:1012900000EBE6FF01EBE6FF02EBE6FF03EBE6FF08
:1012A00004EBE6FF360EE66E010EE66EF2DE47E96F
:1012B00041E9E7CFD9FF1200D9CFE6FFE1CFD9FF4F
:1012C00085E900EBE6FF01EBE6FF02EBE6FF03EB4F
:1012D000E6FF000EE66E010EE66E67DE46E941E9C6
:1012E000E7CFD9FF1200D9CFE6FFE1CFD9FF86E9DA
:1012F00000EBE6FF01EBE6FF02EBE6FF03EBE6FFA8
:1013000004EBE6FF000EE66E010EE66EC2DE47E974
:1013100041E9E7CFD9FF1200D9CFE6FFE1CFD9FFEE
:1013200085E900EBE6FF01EBE6FF02EBE6FF03EBEE
:10133000E6FF000EE66E000EE66E37DE46E941E996
:10134000E7CFD9FF1200D9CFE6FFE1CFD9FF86E979
:1013500000EBE6FF01EBE6FF02EBE6FF03EBE6FF47
:1013600004EBE6FF000EE66E000EE66E92DE47E945
:1013700041E9E7CFD9FF12000001366BB60EE66EE9
:10138000000EE66EE3DD42E9360EE66E010EE66E15
:10139000DDDD42E9000EE66E010EE66ED7DD42E9C4
:1013A000000EE66E000EE66ED1DD42E9800EE66EBE
:1013B000000EE66ECBDD42E91200D38E0300120070
:1013C000D9CFE6FFE1CFD9FF83E900EBE9FF01EBDD
:1013D000EAFFE9CFF6F0EACFF7F000EBE9FF01EB27
:1013E000EAFF350EE926000EEA22EF500D0D00014E
:1013F000F651F324E96EF751F420EA6EEF5041E91B
:10140000E7CFD9FF12000001365101E1120084EC50
:101410000AF0F3CFF6F0F4CFF7F00001F350F41038
:1014200001E0120064EC0AF0F3CFF6F0F4CFF7F02D
:101430000001F350F41001E11200360EE66E010EC9
:10144000E66EBEDF42E9000901E01200B60EE66E6C
:10145000000EE66EB5DF42E9000901E01200DDEFA3
:1014600009F0800EE66E000EE66EAADF42E9000982
:1014700002E0010E01D0000EF36EF46A120090EC4F
:101480000AF0F3CFF6F0F4CFF7F0F350F41001E1E7
:1014900012000001010E366F360EE66E010EE66E8A
:1014A0008FDF42E9000908E1B60EE66E000EE66E37
:0E14B00087DF42E90009F0E00001366B120010
:0214BE00D08ECE
:1014C000F28EF28C9E8C1200F250800B800A01E0AA
:1014D000010E0001F66FF76B800B01E0F769F6C0B3
:1014E000F3FFF7C0F4FF1200F250400B400A01E096
:1014F000010E0001F66FF76B800B01E0F769F6C093
:10150000F3FFF7C0F4FF1200F2BC04D0DDDFF350AC
:10151000F41002E0000E01D0010EF36EF46A120026
:10152000F3DFF3CFF6F0F4CFF7F00001F350F4104F
:1015300006E1CADFF350F41002E1010E01D0000E03
:10154000F36EF46A1200DACFE4FFE2CFDAFFE9CFFC
:10155000E4FFEACFE4FFD9CFE4FFDACFE4FF37C0FE
:10156000E4FF38C0E4FF39C0E4FF3AC0E4FFF6CF3F
:10157000E4FFF7CFE4FFF5CFE4FFF3CFE4FFF4CFD0
:10158000E4FFFACFE4FF00EEF6F0070EE80403E311
:10159000EECFE4FFFBD7E6529EA603D09E9602EC68
:1015A00005F0F2A403D0F29427EC0DF09EAC03D02A
:1015B0009E9C7CEC0DF003EC0AF0E55200EEFCF092
:1015C000070EE80403E3E5CFEDFFFBD7E5CFFAFF15
:1015D000E5CFF4FFE5CFF3FFE5CFF5FFE5CFF7FF6C
:1015E000E5CFF6FFE5CF3AF0E5CF39F0E5CF38F0BB
:1015F000E5CF37F0E5CFDAFFE5CFD9FFE5CFEAFF5A
:10160000E5CFE9FFE5CFDAFF1100D8CFE4FFE0CF67
:10161000E4FFE46EDACFE4FFE2CFDAFFE9CFE4FFE4
:10162000EACFE4FFD9CFE4FFDACFE4FF37C0E4FF2D
:1016300038C0E4FF39C0E4FF3AC0E4FFF6CFE4FF6E
:10164000F7CFE4FFF5CFE4FFF3CFE4FFF4CFE4FFFF
:10165000FACFE4FF00EEF6F0070EE80403E3EECF66
:10166000E4FFFBD7E6529EA003D09E905DEC0DF008
:101670009EAA03D09E9A9DEC0DF0E55200EEFCF080
:10168000070EE80403E3E5CFEDFFFBD7E5CFFAFF54
:10169000E5CFF4FFE5CFF3FFE5CFF5FFE5CFF7FFAB
:1016A000E5CFF6FFE5CF3AF0E5CF39F0E5CF38F0FA
:1016B000E5CF37F0E5CFDAFFE5CFD9FFE5CFEAFF99
:1016C000E5CFE9FFE5CFDAFFE550E5CFE0FFE5CF75
:0416D000D8FF10002F
:0C16D40043E8D9CFE6FFDACFE6FFE1CF14
:1016E000D9FFE2CFDAFF89E9066A1200F3DF06804C
:1016F00003D0F0DF01D00682056A046A100EE76E9F
:10170000D89002360336043605360050045C01508A
:10171000055805E30050045E0150055A022AE72EE1
:10172000F0D706B2120006B006D084EB00F085EBCD
:1017300001F006A004D082EB00F083EB01F0E5524B
:10174000E5CFDAFFE7CFD9FF45E9120045E8D9CF69
:10175000E6FFDACFE6FFE1CFD9FFE2CFDAFF8FE98C
:101760000C6A1200F3DF0C8003D0F0DF01D00C8292
:101770000B6A0A6A096A086A200EE76ED890043676
:10178000053606360736083609360A360B36005057
:10179000085C0150095802500A5803500B5809E3DD
:1017A0000050085E0150095A02500A5A03500B5A61
:1017B000042AE72EE4D70CB212000CB00AD088EB52
:1017C00000F089EB01F08AEB02F08BEB03F00CA048
:1017D00008D084EB00F085EB01F086EB02F087EB9C
:1017E00003F0E552E5CFDAFFE7CFD9FF49E9120070
:1017F00044E8D9CFE6FFDACFE6FFE1CFD9FFE2CF69
:10180000DAFF8EE980EB08F081EB09F082EB0AF059
:1018100083EB0BF004500802F350006EF450016E9D
:1018200004500902F3500126000EF420026E045009
:101830000A02F3500226000EF420036E04500B023D
:10184000F350032605500802F3500126F4500222FB
:10185000000E032205500902F3500226F450032221
:1018600005500A02F350032606500802F3500226E0
:10187000F450032206500902F350032607500802D1
:10188000F3500326E552E5CFDAFFE7CFD9FF48E969
:02189000000C4A
:0E189200D9CFE6FFE1CFD9FF81E97FE844E836
:1018A000336A346A010E376E386A426A436A9B8C27
:1018B000D950390FE66EDACFE6FFF2EC0DF042E9CF
:1018C000190EE66EE66A6C0EE66E79EC0FF043E9EF
:1018D000D950050FE66EDACFE6FF5FEC07F042E97C
:1018E000BCEC09F09E0EE66E91EC07F041E9920E19
:1018F000E66EE0EC10F041E9806A896A0F0E926EA4
:10190000C4EC10F05FEC0AF09F9A9F869D869F8C36
:10191000936A8A6A9D0EE66E1C0EE66EE66AEDEC30
:101920000FF043E93FEC0AF0D950210FE66EDACF11
:10193000E6FFD950030FE66EDACFE6FF0A0EE66E39
:1019400043EC09F045E9026E023411E3FC0E025C3F
:10195000E9E002EBF6F00001F76BF6BFF769F6C0BD
:10196000E6FFF7C0E6FF6F0EE66E1C0E11D00350C7
:101970002A0A62E0020A2DE0010A2BE0230A0EE0A7
:10198000250A0CE00350E66EE66A100EE66E1C0EA9
:10199000E66EE66AEDEC0FF045E9C4D7D950210FA9
:1019A000E66EDACFE6FF02EBF6F00001F76BF6BF6A
:1019B000F769F6C0E6FFF7C0E6FF0350E66EE66A99
:1019C000D950350FE66EDACFE6FF7FEC10F048E92C
:1019D000A9D70350E66EE66A530EE66E1C0EE66E5D
:1019E000E66AEDEC0FF045E92C6A02502C5C19E236
:1019F0000001D950210FF66FDACFF7F02C50EA6AC8
:101A0000F625E96EDA50EA22EF50E66EE66A4F0EEE
:101A1000E66E1C0EE66EE66AEDEC0FF045E92C2A48
:101A2000E4D74C0EE66E1C0EE66EE66AEDEC0FF0A7
:101A300043E9A1EB04F076D73C0EE66E1C0EE66E91
:0E1A4000E66AEDEC0FF043E90450AA0A6BD7FA
:021A4E00D9CFEE
:101A5000E6FFE1CFD9FF81E946E8000EE66EE66ACF
:101A60002BEC11F042E9D950010FE66EDACFE6FF18
:101A7000D950050FE66EDACFE6FF020EE66EA3EC54
:101A800009F045E9036E046AE8BE0468020E031813
:101A90000EE104500CE1D950010FE66EDACFE6FFFB
:101AA0000A0EE66E020EE66E2CEC09F044E90AEC32
:101AB00000F047E9E7CFD9FF1200D9CFE6FFE1CF29
:101AC000D9FF81E942E813EC11F0F350016EF450B4
:101AD000026E000EE66EE66A0B0EE66EE66AFCEC3F
:101AE00008F044E9000EE66EE66AFBEC10F042E90D
:101AF00043E9E7CFD9FF1200D9CFE6FFE1CFD9FF05
:101B000081E944E898EC11F0F350016EF450026E54
:101B1000FF0E0114036E046AD950010FE66EDACF8E
:101B2000E6FF2F0EE66E020EE66ECCEC08F044E9FE
:0A1B30009E9C45E9E7CFD9FF1200A3
:061B3A009EAA44D0A5ECB8
:101B400010F0E66EFDC0E9FFFEC0EAFFFDC0F6F052
:101B5000FEC0F7F0040EEB500001EA6AF625E96ECC
:101B6000F751EA22E552E750EF6EFDC0E9FFFEC0F3
:101B7000EAFF040EE926000EEA22EF2AFDC0E9FF83
:101B8000FEC0EAFF040EEB5004081DE1FDC0E9FFB2
:101B9000FEC0EAFFFDC0F6F0FEC0F7F0FDC0E6FFB4
:101BA000FEC0E6FF1F0EE66E040EEB50E66EFCEC88
:101BB00008F044E9FDC0E9FFFEC0EAFF040EE92693
:101BC000000EEA22EF6A0001FFA70BD0AB98AB88AA
:101BD000000EE66EE66A1E0EE66EE66AFCEC08F0A3
:101BE00044E91200D9CFE6FFE1CFD9FF83E900EB4A
:101BF000FDF001EBFEF0FDC0E9FFFEC0EAFF040EC0
:101C0000E926000EEA22EF6A41E9E7CFD9FF120088
:101C10004572726F723A20556E65787065637465AF
:101C200064206D736720696E2071756575652C2061
:101C300074797065203D2025780D0A0049324320D3
:101C4000536C617665205265710D0A000D0A002003
:101C500025780049324320496E746572727570743C
:101C60002072656365697665642025783A200045B1
:101C700072726F723A2042616420686967682070EE
:101C800072696F7269747920726563656976652C13
:101C900020636F6465203D2025780D0A0048656C3F
:101CA0006C6F0D0A004D53473A20256420256420AF
:101CB00025730D0A0053656E644572726F7220259C
:101CC000640D0A0054494D4552313A2025642025BF
:071CD000642025640D0A00E9
:081CD800D9CFE6FFE1CFD9FFEF
:101CE00083E900EBE9FF01EBEAFFEE6AED6A41E907
:101CF000E7CFD9FF1200D9CFE6FFE1CFD9FF89E9BD
:101D000041E806EBE9FF07EBEAFFEE2A000EEF22BF
:101D10000A0EE66EE66A06EBE9FF07EBEAFFEECF96
:101D2000E6FFEECFE6FF79EC0BF0E552E5CFF7F0FA
:101D3000E7CFF6F00001090EF6192AE1F75128E184
:101D400006EBE9FF07EBEAFFE9CFF6F0EACFF7F0A1
:101D5000E9CFE6FFEACFE6FF140EE66E020EE66E6E
:101D60008CEC09F044E9096E093412E309EBF6F052
:101D70000001F76BF6BFF769F6C0E6FFF7C0E6FFB4
:101D8000B50EE66E1C0EE66EE66AEDEC0FF045E968
:081D900042E9E7CFD9FF120080
:081D9800D9CFE6FFDACFE6FF28
:101DA000FA0EE3CFD9FFFB0EE3CFDAFFFC0EE3CF51
:101DB000E9FFFD0EE3CFEAFFE9CFF3FFEACFF4FF3F
:101DC000F80EE35003E1F90EE35008E0F80EE306E5
:101DD00002E2F90EE306DECFEEFFF2D7FF0EE3CF0D
:101DE000DAFFE552FF0EE3CFD9FFE5521200FE0EF7
:101DF000E3CFE9FFFF0EE3CFEAFFF36AF46AEE52A6
:101E000003E0F34AF42AFBD71200FF0EE3CFF8FFFA
:101E1000E552FF0EE3CFF7FFE552FF0EE3CFF6FFEB
:101E2000E552E66AE66AE66A0900F55209E0FD0E47
:101E3000E32A05E1FE0EE32A02E1FF0EE32AF4D7CE
:101E4000FD0EE3CF37F0FE0EE3CF38F0FF0EE3CF09
:041E500039F0120053
:0C1E54001E0EF66E000EF76E000EF86E0B
:101E600000010900F550F16F0900F550F26F03E130
:101E7000F16701D03DD00900F550EC6F0900F55035
:101E8000ED6F0900F550EE6F09000900F550E96E9D
:101E90000900F550EA6E090009000900F550EF6FDE
:101EA0000900F550F06F09000900F6CFF3F0F7CF05
:101EB000F4F0F8CFF5F0ECC0F6FFEDC0F7FFEEC0A0
:101EC000F8FF0001EF5302E1F05307E00900F5507D
:101ED000EE6EEF07F8E2F007F9D7F3C0F6FFF4C0B3
:101EE000F7FFF5C0F8FF0001F107000EF25BBFD766
:021EF0001200DE
:0E1EF200D9CFE6FFDACFE6FFE1CFD9FFE2CF8E
:101F0000DAFF85E9AC6AAB6A02B0AC8802A202D003
:101F1000AC8CAB8C02B4AC8E02A602D0AB8801D0E4
:101F2000AB8A02B8AC849E9802BAAB8602AC02D0EF
:101F30009D8A01D09D9A9E9A02AE02D09D8801D0C2
:101F40009D9800EBAFFF000101EBF6F0F76BF6C0D8
:101F5000B0FFAC8AAB8E949C948EAC50100B04E016
:101F6000AC50800B01E1948C41E9E5CFDAFFE7CF7B
:041F7000D9FF120083
:0C1F7400D9CFE6FFDACFE6FFE1CFD9FFBE
:101F8000E2CFDAFF85E9013415E200EBE9FF01EB6E
:101F9000EAFFEECFF3FFEDCFF4FFEE2A000EEF22C3
:101FA000F3CFE9FFF4CFEAFF02EBEFFFEF50F36E60
:101FB000F46A0DD0FE0E005C05E102EBE6FF7DEC5D
:101FC00011F004D002EBE6FF03EC00F041E941E937
:0A1FD000E5CFDAFFE7CFD9FF1200DA
:061FDA00D9CFE6FFDACFCB
:101FE000E6FFE1CFD9FFE2CFDAFF85E944E8D9CFB8
:101FF000E6FFDACFE6FFE552E550066EE750056EE4
:1020000005EBE6FF06EBE6FF00EBE6FF01EBE6FF84
:1020100002EBE6FF3DC0E6FF3EC0E6FF2FEC00F01E
:1020200047E9F350076EF450086E07EBF3FF08EB37
:0E203000F4FF45E9E5CFDAFFE7CFD9FF120054
:02203E00D9CFF8
:10204000E6FFDACFE6FFE1CFD9FFE2CFDAFF85E99D
:10205000C26AC06A01407F0B3C0BC26E0138F00BB4
:10206000300B0001F66F0F0E0014F611C16E025016
:10207000040DF350380BF76F02380F0B070BF66F98
:10208000800E0214F611F711C06E01AE03D09E9CB3
:102090009D8CF28CC28041E9E5CFDAFFE7CFD9FF12
:0220A00012002C
:0E20A200D9CFE6FFE1CFD9FF89E91E0E041861
:1020B00002E1055020E01F0E04181DE105501BE150
:1020C00000500224E96E01500320EA6EEF6A00EB33
:1020D000E6FF01EBE6FF02EBE6FF03EBE6FF04EBB6
:1020E000E6FF05EBE6FFA50EE66E1C0EE66EE66A61
:0E20F000EDEC0FF049E941E9E7CFD9FF12000E
:0220FE00D9CF38
:10210000E6FFE1CFD9FF89E942E880EB09F081EBF6
:102110000AF009EBE9FF0AEBEAFFEECFE6FFEECFAC
:10212000E6FF02EBE6FF03EBE6FF04EBE6FF05EB61
:10213000E6FFC40EE66E1C0EE66EE66AEDEC0FF0EE
:0A21400049E943E9E7CFD9FF120097
:06214A00D9CFE6FFDACF59
:10215000E6FFE1CFD9FFE2CFDAFF82E941E8F20EF4
:102160000001FF17ABAC03D0FF91ABB0FF81ABB464
:10217000FF85ABB2FF87AE50026E025042E9E5CF59
:08218000DAFFE7CFD9FF1200DE
:082188000B0EE66E840EE66EFC
:10219000930EE66E1FEC10F043E9870EE66E43ECFB
:1021A00011F041E91200D9CFE6FFE1CFD9FF83E971
:1021B0000AEC00F041E9E7CFD9FF120007EF00F089
:1021C000D9CFE6FFDACFE6FFE1CFD9FFE2CFDAFFE2
:1021D00083E97F0E0014D56ED76AD66AF29400AEFA
:1021E00002D0F28A01D0F29AD58E41E9E5CFDAFF2A
:0621F000E7CFD9FF120049
:0A21F600D9CFE6FFDACFE6FFE1CF14
:10220000D9FFE2CFDAFF84E942E880EB04F081EB0A
:1022100005F005EBCFFF04EBCEFF43E9E5CFDAFF96
:06222000E7CFD9FF120018
:0A222600D9CFE6FFDACFE6FFE1CFE3
:10223000D9FFE2CFDAFF82E942E8CE50026ECF50FA
:10224000036E02EBF3FF03EBF4FF43E9E5CFDAFFA4
:06225000E7CFD9FF1200E8
:0A225600D9CFE6FFDACFE6FFE1CFB3
:10226000D9FFE2CFDAFF84E942E880EB04F081EBAA
:1022700005F005EBD7FF04EBD6FF43E9E5CFDAFF26
:06228000E7CFD9FF1200B8
:0A228600D9CFE6FFDACFE6FFE1CF83
:10229000D9FFE2CFDAFF83E9C30EC2140001F66F63
:1022A00000407F0B3C0BF611C26E41E9E5CFDAFF2F
:0622B000E7CFD9FF120088
:0A22B600F36AF46AFF0EE124E96EFA
:1022C000FF0EE220EA6EED6607D02F0EEF6404D019
:0A22D0003A0EEF6001D0F32A12006D
:0622DA00000EF36E00EEA1
:1022E00000F0040E01D81200EA6002D0EE6AFCD7BA
:0A22F000F350E9601200EE6AFCD71B
:0622FA00FF0EE350ACBA38
:1023000004D0AF6AAB8EAC8A949CACA2FED7AD6E03
:06231000F36EF46A1200F6
:0A23160013EE00F023EE00F0F86A69
:102320002AEC0FF0ADEC11F049EC0CF0FBD71200E9
:10233000C4CFF8F0F8C0F9F00001F86BC350F81101
:08234000F36EF9C0F4FF120076
:082348003031323334353637F1
:09235000383961626364656600BE
:02235A0012006F
:02235C00FEFF82
:017FF800E0A8
:017FFA00C5C1
:00000001FF
